{
	"CertificateRegistry.sol": {
		"CertificateRegistry": {
			"abi": [
				{
					"inputs": [],
					"stateMutability": "nonpayable",
					"type": "constructor"
				},
				{
					"anonymous": false,
					"inputs": [
						{
							"indexed": true,
							"internalType": "address",
							"name": "student",
							"type": "address"
						},
						{
							"indexed": false,
							"internalType": "string",
							"name": "certificateDetails",
							"type": "string"
						}
					],
					"name": "CertificateIssued",
					"type": "event"
				},
				{
					"inputs": [
						{
							"internalType": "address",
							"name": "",
							"type": "address"
						}
					],
					"name": "certificates",
					"outputs": [
						{
							"internalType": "string",
							"name": "",
							"type": "string"
						}
					],
					"stateMutability": "view",
					"type": "function"
				},
				{
					"inputs": [
						{
							"internalType": "address",
							"name": "_student",
							"type": "address"
						}
					],
					"name": "getCertificate",
					"outputs": [
						{
							"internalType": "string",
							"name": "",
							"type": "string"
						}
					],
					"stateMutability": "view",
					"type": "function"
				},
				{
					"inputs": [
						{
							"internalType": "address",
							"name": "_student",
							"type": "address"
						},
						{
							"internalType": "string",
							"name": "_details",
							"type": "string"
						}
					],
					"name": "issueCertificate",
					"outputs": [],
					"stateMutability": "nonpayable",
					"type": "function"
				},
				{
					"inputs": [],
					"name": "owner",
					"outputs": [
						{
							"internalType": "address",
							"name": "",
							"type": "address"
						}
					],
					"stateMutability": "view",
					"type": "function"
				}
			],
			"devdoc": {
				"kind": "dev",
				"methods": {},
				"version": 1
			},
			"evm": {
				"assembly": "    /* \"CertificateRegistry.sol\":29:1150  contract CertificateRegistry {... */\n  mstore(0x40, 0x80)\n    /* \"CertificateRegistry.sol\":249:300  constructor() {... */\n  callvalue\n  dup1\n  iszero\n  tag_1\n  jumpi\n  revert(0x00, 0x00)\ntag_1:\n  pop\n    /* \"CertificateRegistry.sol\":282:292  msg.sender */\n  caller\n    /* \"CertificateRegistry.sol\":274:279  owner */\n  0x00\n  0x00\n    /* \"CertificateRegistry.sol\":274:292  owner = msg.sender */\n  0x0100\n  exp\n  dup2\n  sload\n  dup2\n  0xffffffffffffffffffffffffffffffffffffffff\n  mul\n  not\n  and\n  swap1\n  dup4\n  0xffffffffffffffffffffffffffffffffffffffff\n  and\n  mul\n  or\n  swap1\n  sstore\n  pop\n    /* \"CertificateRegistry.sol\":29:1150  contract CertificateRegistry {... */\n  dataSize(sub_0)\n  dup1\n  dataOffset(sub_0)\n  0x00\n  codecopy\n  0x00\n  return\nstop\n\nsub_0: assembly {\n        /* \"CertificateRegistry.sol\":29:1150  contract CertificateRegistry {... */\n      mstore(0x40, 0x80)\n      callvalue\n      dup1\n      iszero\n      tag_1\n      jumpi\n      revert(0x00, 0x00)\n    tag_1:\n      pop\n      jumpi(tag_2, lt(calldatasize, 0x04))\n      shr(0xe0, calldataload(0x00))\n      dup1\n      0x16e526\n      eq\n      tag_3\n      jumpi\n      dup1\n      0x8da5cb5b\n      eq\n      tag_4\n      jumpi\n      dup1\n      0xbb721aab\n      eq\n      tag_5\n      jumpi\n      dup1\n      0xfd531e93\n      eq\n      tag_6\n      jumpi\n    tag_2:\n      revert(0x00, 0x00)\n        /* \"CertificateRegistry.sol\":102:148  mapping(address => string) public certificates */\n    tag_3:\n      tag_7\n      0x04\n      dup1\n      calldatasize\n      sub\n      dup2\n      add\n      swap1\n      tag_8\n      swap2\n      swap1\n      tag_9\n      jump\t// in\n    tag_8:\n      tag_10\n      jump\t// in\n    tag_7:\n      mload(0x40)\n      tag_11\n      swap2\n      swap1\n      tag_12\n      jump\t// in\n    tag_11:\n      mload(0x40)\n      dup1\n      swap2\n      sub\n      swap1\n      return\n        /* \"CertificateRegistry.sol\":73:93  address public owner */\n    tag_4:\n      tag_13\n      tag_14\n      jump\t// in\n    tag_13:\n      mload(0x40)\n      tag_15\n      swap2\n      swap1\n      tag_16\n      jump\t// in\n    tag_15:\n      mload(0x40)\n      dup1\n      swap2\n      sub\n      swap1\n      return\n        /* \"CertificateRegistry.sol\":449:826  function issueCertificate(address _student, string calldata _details) external onlyOwner {... */\n    tag_5:\n      tag_17\n      0x04\n      dup1\n      calldatasize\n      sub\n      dup2\n      add\n      swap1\n      tag_18\n      swap2\n      swap1\n      tag_19\n      jump\t// in\n    tag_18:\n      tag_20\n      jump\t// in\n    tag_17:\n      stop\n        /* \"CertificateRegistry.sol\":840:1147  function getCertificate(address _student) public view returns (string memory) {... */\n    tag_6:\n      tag_21\n      0x04\n      dup1\n      calldatasize\n      sub\n      dup2\n      add\n      swap1\n      tag_22\n      swap2\n      swap1\n      tag_9\n      jump\t// in\n    tag_22:\n      tag_23\n      jump\t// in\n    tag_21:\n      mload(0x40)\n      tag_24\n      swap2\n      swap1\n      tag_12\n      jump\t// in\n    tag_24:\n      mload(0x40)\n      dup1\n      swap2\n      sub\n      swap1\n      return\n        /* \"CertificateRegistry.sol\":102:148  mapping(address => string) public certificates */\n    tag_10:\n      mstore(0x20, 0x01)\n      dup1\n      0x00\n      mstore\n      keccak256(0x00, 0x40)\n      0x00\n      swap2\n      pop\n      swap1\n      pop\n      dup1\n      sload\n      tag_25\n      swap1\n      tag_26\n      jump\t// in\n    tag_25:\n      dup1\n      0x1f\n      add\n      0x20\n      dup1\n      swap2\n      div\n      mul\n      0x20\n      add\n      mload(0x40)\n      swap1\n      dup2\n      add\n      0x40\n      mstore\n      dup1\n      swap3\n      swap2\n      swap1\n      dup2\n      dup2\n      mstore\n      0x20\n      add\n      dup3\n      dup1\n      sload\n      tag_27\n      swap1\n      tag_26\n      jump\t// in\n    tag_27:\n      dup1\n      iszero\n      tag_28\n      jumpi\n      dup1\n      0x1f\n      lt\n      tag_29\n      jumpi\n      0x0100\n      dup1\n      dup4\n      sload\n      div\n      mul\n      dup4\n      mstore\n      swap2\n      0x20\n      add\n      swap2\n      jump(tag_28)\n    tag_29:\n      dup3\n      add\n      swap2\n      swap1\n      0x00\n      mstore\n      keccak256(0x00, 0x20)\n      swap1\n    tag_30:\n      dup2\n      sload\n      dup2\n      mstore\n      swap1\n      0x01\n      add\n      swap1\n      0x20\n      add\n      dup1\n      dup4\n      gt\n      tag_30\n      jumpi\n      dup3\n      swap1\n      sub\n      0x1f\n      and\n      dup3\n      add\n      swap2\n    tag_28:\n      pop\n      pop\n      pop\n      pop\n      pop\n      dup2\n      jump\t// out\n        /* \"CertificateRegistry.sol\":73:93  address public owner */\n    tag_14:\n      0x00\n      0x00\n      swap1\n      sload\n      swap1\n      0x0100\n      exp\n      swap1\n      div\n      0xffffffffffffffffffffffffffffffffffffffff\n      and\n      dup2\n      jump\t// out\n        /* \"CertificateRegistry.sol\":449:826  function issueCertificate(address _student, string calldata _details) external onlyOwner {... */\n    tag_20:\n        /* \"CertificateRegistry.sol\":362:367  owner */\n      0x00\n      0x00\n      swap1\n      sload\n      swap1\n      0x0100\n      exp\n      swap1\n      div\n      0xffffffffffffffffffffffffffffffffffffffff\n      and\n        /* \"CertificateRegistry.sol\":348:367  msg.sender == owner */\n      0xffffffffffffffffffffffffffffffffffffffff\n      and\n        /* \"CertificateRegistry.sol\":348:358  msg.sender */\n      caller\n        /* \"CertificateRegistry.sol\":348:367  msg.sender == owner */\n      0xffffffffffffffffffffffffffffffffffffffff\n      and\n      eq\n        /* \"CertificateRegistry.sol\":340:416  require(msg.sender == owner, \"Samo administrator moze izvrsiti ovu akciju!\") */\n      tag_32\n      jumpi\n      mload(0x40)\n      0x08c379a000000000000000000000000000000000000000000000000000000000\n      dup2\n      mstore\n      0x04\n      add\n      tag_33\n      swap1\n      tag_34\n      jump\t// in\n    tag_33:\n      mload(0x40)\n      dup1\n      swap2\n      sub\n      swap1\n      revert\n    tag_32:\n        /* \"CertificateRegistry.sol\":586:587  0 */\n      0x00\n        /* \"CertificateRegistry.sol\":566:588  _student != address(0) */\n      0xffffffffffffffffffffffffffffffffffffffff\n      and\n        /* \"CertificateRegistry.sol\":566:574  _student */\n      dup4\n        /* \"CertificateRegistry.sol\":566:588  _student != address(0) */\n      0xffffffffffffffffffffffffffffffffffffffff\n      and\n      sub\n        /* \"CertificateRegistry.sol\":558:618  require(_student != address(0), \"Nevazeca adresa studenta!\") */\n      tag_36\n      jumpi\n      mload(0x40)\n      0x08c379a000000000000000000000000000000000000000000000000000000000\n      dup2\n      mstore\n      0x04\n      add\n      tag_37\n      swap1\n      tag_38\n      jump\t// in\n    tag_37:\n      mload(0x40)\n      dup1\n      swap2\n      sub\n      swap1\n      revert\n    tag_36:\n        /* \"CertificateRegistry.sol\":662:663  0 */\n      0x00\n        /* \"CertificateRegistry.sol\":643:651  _details */\n      dup3\n      dup3\n        /* \"CertificateRegistry.sol\":637:659  bytes(_details).length */\n      swap1\n      pop\n        /* \"CertificateRegistry.sol\":637:663  bytes(_details).length > 0 */\n      gt\n        /* \"CertificateRegistry.sol\":629:709  require(bytes(_details).length > 0, \"Detalji sertifikata ne smeju biti prazni!\") */\n      tag_39\n      jumpi\n      mload(0x40)\n      0x08c379a000000000000000000000000000000000000000000000000000000000\n      dup2\n      mstore\n      0x04\n      add\n      tag_40\n      swap1\n      tag_41\n      jump\t// in\n    tag_40:\n      mload(0x40)\n      dup1\n      swap2\n      sub\n      swap1\n      revert\n    tag_39:\n        /* \"CertificateRegistry.sol\":747:755  _details */\n      dup2\n      dup2\n        /* \"CertificateRegistry.sol\":722:734  certificates */\n      0x01\n        /* \"CertificateRegistry.sol\":722:744  certificates[_student] */\n      0x00\n        /* \"CertificateRegistry.sol\":735:743  _student */\n      dup7\n        /* \"CertificateRegistry.sol\":722:744  certificates[_student] */\n      0xffffffffffffffffffffffffffffffffffffffff\n      and\n      0xffffffffffffffffffffffffffffffffffffffff\n      and\n      dup2\n      mstore\n      0x20\n      add\n      swap1\n      dup2\n      mstore\n      0x20\n      add\n      0x00\n      keccak256\n        /* \"CertificateRegistry.sol\":722:755  certificates[_student] = _details */\n      swap2\n      dup3\n      tag_42\n      swap3\n      swap2\n      swap1\n      tag_43\n      jump\t// in\n    tag_42:\n      pop\n        /* \"CertificateRegistry.sol\":799:807  _student */\n      dup3\n        /* \"CertificateRegistry.sol\":781:818  CertificateIssued(_student, _details) */\n      0xffffffffffffffffffffffffffffffffffffffff\n      and\n      0x4514a45e6f56567008e790fe2158e66d34e8b8254c060ad061d5702748791479\n        /* \"CertificateRegistry.sol\":809:817  _details */\n      dup4\n      dup4\n        /* \"CertificateRegistry.sol\":781:818  CertificateIssued(_student, _details) */\n      mload(0x40)\n      tag_44\n      swap3\n      swap2\n      swap1\n      tag_45\n      jump\t// in\n    tag_44:\n      mload(0x40)\n      dup1\n      swap2\n      sub\n      swap1\n      log2\n        /* \"CertificateRegistry.sol\":449:826  function issueCertificate(address _student, string calldata _details) external onlyOwner {... */\n      pop\n      pop\n      pop\n      jump\t// out\n        /* \"CertificateRegistry.sol\":840:1147  function getCertificate(address _student) public view returns (string memory) {... */\n    tag_23:\n        /* \"CertificateRegistry.sol\":903:916  string memory */\n      0x60\n        /* \"CertificateRegistry.sol\":929:947  string memory cert */\n      0x00\n        /* \"CertificateRegistry.sol\":950:962  certificates */\n      0x01\n        /* \"CertificateRegistry.sol\":950:972  certificates[_student] */\n      0x00\n        /* \"CertificateRegistry.sol\":963:971  _student */\n      dup5\n        /* \"CertificateRegistry.sol\":950:972  certificates[_student] */\n      0xffffffffffffffffffffffffffffffffffffffff\n      and\n      0xffffffffffffffffffffffffffffffffffffffff\n      and\n      dup2\n      mstore\n      0x20\n      add\n      swap1\n      dup2\n      mstore\n      0x20\n      add\n      0x00\n      keccak256\n        /* \"CertificateRegistry.sol\":929:972  string memory cert = certificates[_student] */\n      dup1\n      sload\n      tag_47\n      swap1\n      tag_26\n      jump\t// in\n    tag_47:\n      dup1\n      0x1f\n      add\n      0x20\n      dup1\n      swap2\n      div\n      mul\n      0x20\n      add\n      mload(0x40)\n      swap1\n      dup2\n      add\n      0x40\n      mstore\n      dup1\n      swap3\n      swap2\n      swap1\n      dup2\n      dup2\n      mstore\n      0x20\n      add\n      dup3\n      dup1\n      sload\n      tag_48\n      swap1\n      tag_26\n      jump\t// in\n    tag_48:\n      dup1\n      iszero\n      tag_49\n      jumpi\n      dup1\n      0x1f\n      lt\n      tag_50\n      jumpi\n      0x0100\n      dup1\n      dup4\n      sload\n      div\n      mul\n      dup4\n      mstore\n      swap2\n      0x20\n      add\n      swap2\n      jump(tag_49)\n    tag_50:\n      dup3\n      add\n      swap2\n      swap1\n      0x00\n      mstore\n      keccak256(0x00, 0x20)\n      swap1\n    tag_51:\n      dup2\n      sload\n      dup2\n      mstore\n      swap1\n      0x01\n      add\n      swap1\n      0x20\n      add\n      dup1\n      dup4\n      gt\n      tag_51\n      jumpi\n      dup3\n      swap1\n      sub\n      0x1f\n      and\n      dup3\n      add\n      swap2\n    tag_49:\n      pop\n      pop\n      pop\n      pop\n      pop\n      swap1\n      pop\n        /* \"CertificateRegistry.sol\":1029:1030  0 */\n      0x00\n        /* \"CertificateRegistry.sol\":1013:1017  cert */\n      dup2\n        /* \"CertificateRegistry.sol\":1007:1025  bytes(cert).length */\n      mload\n        /* \"CertificateRegistry.sol\":1007:1030  bytes(cert).length == 0 */\n      sub\n        /* \"CertificateRegistry.sol\":1003:1108  if (bytes(cert).length == 0) {... */\n      tag_52\n      jumpi\n        /* \"CertificateRegistry.sol\":1047:1096  return \"Sertifikat nije pronadjen za ovu adresu.\" */\n      mload(0x40)\n      dup1\n      0x60\n      add\n      0x40\n      mstore\n      dup1\n      0x28\n      dup2\n      mstore\n      0x20\n      add\n      data_f5ff73c7690b5a773971b65cc0edbbd428e873e91dd2cf0a5f009d76d56ff4d1\n      0x28\n      swap2\n      codecopy\n      swap2\n      pop\n      pop\n      jump(tag_46)\n        /* \"CertificateRegistry.sol\":1003:1108  if (bytes(cert).length == 0) {... */\n    tag_52:\n        /* \"CertificateRegistry.sol\":1135:1139  cert */\n      dup1\n        /* \"CertificateRegistry.sol\":1128:1139  return cert */\n      swap2\n      pop\n      pop\n        /* \"CertificateRegistry.sol\":840:1147  function getCertificate(address _student) public view returns (string memory) {... */\n    tag_46:\n      swap2\n      swap1\n      pop\n      jump\t// out\n        /* \"#utility.yul\":88:205   */\n    tag_54:\n        /* \"#utility.yul\":197:198   */\n      0x00\n        /* \"#utility.yul\":194:195   */\n      0x00\n        /* \"#utility.yul\":187:199   */\n      revert\n        /* \"#utility.yul\":211:328   */\n    tag_55:\n        /* \"#utility.yul\":320:321   */\n      0x00\n        /* \"#utility.yul\":317:318   */\n      0x00\n        /* \"#utility.yul\":310:322   */\n      revert\n        /* \"#utility.yul\":334:460   */\n    tag_56:\n        /* \"#utility.yul\":371:378   */\n      0x00\n        /* \"#utility.yul\":411:453   */\n      0xffffffffffffffffffffffffffffffffffffffff\n        /* \"#utility.yul\":404:409   */\n      dup3\n        /* \"#utility.yul\":400:454   */\n      and\n        /* \"#utility.yul\":389:454   */\n      swap1\n      pop\n        /* \"#utility.yul\":334:460   */\n      swap2\n      swap1\n      pop\n      jump\t// out\n        /* \"#utility.yul\":466:562   */\n    tag_57:\n        /* \"#utility.yul\":503:510   */\n      0x00\n        /* \"#utility.yul\":532:556   */\n      tag_103\n        /* \"#utility.yul\":550:555   */\n      dup3\n        /* \"#utility.yul\":532:556   */\n      tag_56\n      jump\t// in\n    tag_103:\n        /* \"#utility.yul\":521:556   */\n      swap1\n      pop\n        /* \"#utility.yul\":466:562   */\n      swap2\n      swap1\n      pop\n      jump\t// out\n        /* \"#utility.yul\":568:690   */\n    tag_58:\n        /* \"#utility.yul\":641:665   */\n      tag_105\n        /* \"#utility.yul\":659:664   */\n      dup2\n        /* \"#utility.yul\":641:665   */\n      tag_57\n      jump\t// in\n    tag_105:\n        /* \"#utility.yul\":634:639   */\n      dup2\n        /* \"#utility.yul\":631:666   */\n      eq\n        /* \"#utility.yul\":621:684   */\n      tag_106\n      jumpi\n        /* \"#utility.yul\":680:681   */\n      0x00\n        /* \"#utility.yul\":677:678   */\n      0x00\n        /* \"#utility.yul\":670:682   */\n      revert\n        /* \"#utility.yul\":621:684   */\n    tag_106:\n        /* \"#utility.yul\":568:690   */\n      pop\n      jump\t// out\n        /* \"#utility.yul\":696:835   */\n    tag_59:\n        /* \"#utility.yul\":742:747   */\n      0x00\n        /* \"#utility.yul\":780:786   */\n      dup2\n        /* \"#utility.yul\":767:787   */\n      calldataload\n        /* \"#utility.yul\":758:787   */\n      swap1\n      pop\n        /* \"#utility.yul\":796:829   */\n      tag_108\n        /* \"#utility.yul\":823:828   */\n      dup2\n        /* \"#utility.yul\":796:829   */\n      tag_58\n      jump\t// in\n    tag_108:\n        /* \"#utility.yul\":696:835   */\n      swap3\n      swap2\n      pop\n      pop\n      jump\t// out\n        /* \"#utility.yul\":841:1170   */\n    tag_9:\n        /* \"#utility.yul\":900:906   */\n      0x00\n        /* \"#utility.yul\":949:951   */\n      0x20\n        /* \"#utility.yul\":937:946   */\n      dup3\n        /* \"#utility.yul\":928:935   */\n      dup5\n        /* \"#utility.yul\":924:947   */\n      sub\n        /* \"#utility.yul\":920:952   */\n      slt\n        /* \"#utility.yul\":917:1036   */\n      iszero\n      tag_110\n      jumpi\n        /* \"#utility.yul\":955:1034   */\n      tag_111\n      tag_54\n      jump\t// in\n    tag_111:\n        /* \"#utility.yul\":917:1036   */\n    tag_110:\n        /* \"#utility.yul\":1075:1076   */\n      0x00\n        /* \"#utility.yul\":1100:1153   */\n      tag_112\n        /* \"#utility.yul\":1145:1152   */\n      dup5\n        /* \"#utility.yul\":1136:1142   */\n      dup3\n        /* \"#utility.yul\":1125:1134   */\n      dup6\n        /* \"#utility.yul\":1121:1143   */\n      add\n        /* \"#utility.yul\":1100:1153   */\n      tag_59\n      jump\t// in\n    tag_112:\n        /* \"#utility.yul\":1090:1153   */\n      swap2\n      pop\n        /* \"#utility.yul\":1046:1163   */\n      pop\n        /* \"#utility.yul\":841:1170   */\n      swap3\n      swap2\n      pop\n      pop\n      jump\t// out\n        /* \"#utility.yul\":1176:1275   */\n    tag_60:\n        /* \"#utility.yul\":1228:1234   */\n      0x00\n        /* \"#utility.yul\":1262:1267   */\n      dup2\n        /* \"#utility.yul\":1256:1268   */\n      mload\n        /* \"#utility.yul\":1246:1268   */\n      swap1\n      pop\n        /* \"#utility.yul\":1176:1275   */\n      swap2\n      swap1\n      pop\n      jump\t// out\n        /* \"#utility.yul\":1281:1450   */\n    tag_61:\n        /* \"#utility.yul\":1365:1376   */\n      0x00\n        /* \"#utility.yul\":1399:1405   */\n      dup3\n        /* \"#utility.yul\":1394:1397   */\n      dup3\n        /* \"#utility.yul\":1387:1406   */\n      mstore\n        /* \"#utility.yul\":1439:1443   */\n      0x20\n        /* \"#utility.yul\":1434:1437   */\n      dup3\n        /* \"#utility.yul\":1430:1444   */\n      add\n        /* \"#utility.yul\":1415:1444   */\n      swap1\n      pop\n        /* \"#utility.yul\":1281:1450   */\n      swap3\n      swap2\n      pop\n      pop\n      jump\t// out\n        /* \"#utility.yul\":1456:1595   */\n    tag_62:\n        /* \"#utility.yul\":1545:1551   */\n      dup3\n        /* \"#utility.yul\":1540:1543   */\n      dup2\n        /* \"#utility.yul\":1535:1538   */\n      dup4\n        /* \"#utility.yul\":1529:1552   */\n      mcopy\n        /* \"#utility.yul\":1586:1587   */\n      0x00\n        /* \"#utility.yul\":1577:1583   */\n      dup4\n        /* \"#utility.yul\":1572:1575   */\n      dup4\n        /* \"#utility.yul\":1568:1584   */\n      add\n        /* \"#utility.yul\":1561:1588   */\n      mstore\n        /* \"#utility.yul\":1456:1595   */\n      pop\n      pop\n      pop\n      jump\t// out\n        /* \"#utility.yul\":1601:1703   */\n    tag_63:\n        /* \"#utility.yul\":1642:1648   */\n      0x00\n        /* \"#utility.yul\":1693:1695   */\n      0x1f\n        /* \"#utility.yul\":1689:1696   */\n      not\n        /* \"#utility.yul\":1684:1686   */\n      0x1f\n        /* \"#utility.yul\":1677:1682   */\n      dup4\n        /* \"#utility.yul\":1673:1687   */\n      add\n        /* \"#utility.yul\":1669:1697   */\n      and\n        /* \"#utility.yul\":1659:1697   */\n      swap1\n      pop\n        /* \"#utility.yul\":1601:1703   */\n      swap2\n      swap1\n      pop\n      jump\t// out\n        /* \"#utility.yul\":1709:2086   */\n    tag_64:\n        /* \"#utility.yul\":1797:1800   */\n      0x00\n        /* \"#utility.yul\":1825:1864   */\n      tag_118\n        /* \"#utility.yul\":1858:1863   */\n      dup3\n        /* \"#utility.yul\":1825:1864   */\n      tag_60\n      jump\t// in\n    tag_118:\n        /* \"#utility.yul\":1880:1951   */\n      tag_119\n        /* \"#utility.yul\":1944:1950   */\n      dup2\n        /* \"#utility.yul\":1939:1942   */\n      dup6\n        /* \"#utility.yul\":1880:1951   */\n      tag_61\n      jump\t// in\n    tag_119:\n        /* \"#utility.yul\":1873:1951   */\n      swap4\n      pop\n        /* \"#utility.yul\":1960:2025   */\n      tag_120\n        /* \"#utility.yul\":2018:2024   */\n      dup2\n        /* \"#utility.yul\":2013:2016   */\n      dup6\n        /* \"#utility.yul\":2006:2010   */\n      0x20\n        /* \"#utility.yul\":1999:2004   */\n      dup7\n        /* \"#utility.yul\":1995:2011   */\n      add\n        /* \"#utility.yul\":1960:2025   */\n      tag_62\n      jump\t// in\n    tag_120:\n        /* \"#utility.yul\":2050:2079   */\n      tag_121\n        /* \"#utility.yul\":2072:2078   */\n      dup2\n        /* \"#utility.yul\":2050:2079   */\n      tag_63\n      jump\t// in\n    tag_121:\n        /* \"#utility.yul\":2045:2048   */\n      dup5\n        /* \"#utility.yul\":2041:2080   */\n      add\n        /* \"#utility.yul\":2034:2080   */\n      swap2\n      pop\n        /* \"#utility.yul\":1801:2086   */\n      pop\n        /* \"#utility.yul\":1709:2086   */\n      swap3\n      swap2\n      pop\n      pop\n      jump\t// out\n        /* \"#utility.yul\":2092:2405   */\n    tag_12:\n        /* \"#utility.yul\":2205:2209   */\n      0x00\n        /* \"#utility.yul\":2243:2245   */\n      0x20\n        /* \"#utility.yul\":2232:2241   */\n      dup3\n        /* \"#utility.yul\":2228:2246   */\n      add\n        /* \"#utility.yul\":2220:2246   */\n      swap1\n      pop\n        /* \"#utility.yul\":2292:2301   */\n      dup2\n        /* \"#utility.yul\":2286:2290   */\n      dup2\n        /* \"#utility.yul\":2282:2302   */\n      sub\n        /* \"#utility.yul\":2278:2279   */\n      0x00\n        /* \"#utility.yul\":2267:2276   */\n      dup4\n        /* \"#utility.yul\":2263:2280   */\n      add\n        /* \"#utility.yul\":2256:2303   */\n      mstore\n        /* \"#utility.yul\":2320:2398   */\n      tag_123\n        /* \"#utility.yul\":2393:2397   */\n      dup2\n        /* \"#utility.yul\":2384:2390   */\n      dup5\n        /* \"#utility.yul\":2320:2398   */\n      tag_64\n      jump\t// in\n    tag_123:\n        /* \"#utility.yul\":2312:2398   */\n      swap1\n      pop\n        /* \"#utility.yul\":2092:2405   */\n      swap3\n      swap2\n      pop\n      pop\n      jump\t// out\n        /* \"#utility.yul\":2411:2529   */\n    tag_65:\n        /* \"#utility.yul\":2498:2522   */\n      tag_125\n        /* \"#utility.yul\":2516:2521   */\n      dup2\n        /* \"#utility.yul\":2498:2522   */\n      tag_57\n      jump\t// in\n    tag_125:\n        /* \"#utility.yul\":2493:2496   */\n      dup3\n        /* \"#utility.yul\":2486:2523   */\n      mstore\n        /* \"#utility.yul\":2411:2529   */\n      pop\n      pop\n      jump\t// out\n        /* \"#utility.yul\":2535:2757   */\n    tag_16:\n        /* \"#utility.yul\":2628:2632   */\n      0x00\n        /* \"#utility.yul\":2666:2668   */\n      0x20\n        /* \"#utility.yul\":2655:2664   */\n      dup3\n        /* \"#utility.yul\":2651:2669   */\n      add\n        /* \"#utility.yul\":2643:2669   */\n      swap1\n      pop\n        /* \"#utility.yul\":2679:2750   */\n      tag_127\n        /* \"#utility.yul\":2747:2748   */\n      0x00\n        /* \"#utility.yul\":2736:2745   */\n      dup4\n        /* \"#utility.yul\":2732:2749   */\n      add\n        /* \"#utility.yul\":2723:2729   */\n      dup5\n        /* \"#utility.yul\":2679:2750   */\n      tag_65\n      jump\t// in\n    tag_127:\n        /* \"#utility.yul\":2535:2757   */\n      swap3\n      swap2\n      pop\n      pop\n      jump\t// out\n        /* \"#utility.yul\":2763:2880   */\n    tag_66:\n        /* \"#utility.yul\":2872:2873   */\n      0x00\n        /* \"#utility.yul\":2869:2870   */\n      0x00\n        /* \"#utility.yul\":2862:2874   */\n      revert\n        /* \"#utility.yul\":2886:3003   */\n    tag_67:\n        /* \"#utility.yul\":2995:2996   */\n      0x00\n        /* \"#utility.yul\":2992:2993   */\n      0x00\n        /* \"#utility.yul\":2985:2997   */\n      revert\n        /* \"#utility.yul\":3009:3126   */\n    tag_68:\n        /* \"#utility.yul\":3118:3119   */\n      0x00\n        /* \"#utility.yul\":3115:3116   */\n      0x00\n        /* \"#utility.yul\":3108:3120   */\n      revert\n        /* \"#utility.yul\":3146:3699   */\n    tag_69:\n        /* \"#utility.yul\":3204:3212   */\n      0x00\n        /* \"#utility.yul\":3214:3220   */\n      0x00\n        /* \"#utility.yul\":3264:3267   */\n      dup4\n        /* \"#utility.yul\":3257:3261   */\n      0x1f\n        /* \"#utility.yul\":3249:3255   */\n      dup5\n        /* \"#utility.yul\":3245:3262   */\n      add\n        /* \"#utility.yul\":3241:3268   */\n      slt\n        /* \"#utility.yul\":3231:3353   */\n      tag_132\n      jumpi\n        /* \"#utility.yul\":3272:3351   */\n      tag_133\n      tag_66\n      jump\t// in\n    tag_133:\n        /* \"#utility.yul\":3231:3353   */\n    tag_132:\n        /* \"#utility.yul\":3385:3391   */\n      dup3\n        /* \"#utility.yul\":3372:3392   */\n      calldataload\n        /* \"#utility.yul\":3362:3392   */\n      swap1\n      pop\n        /* \"#utility.yul\":3415:3433   */\n      0xffffffffffffffff\n        /* \"#utility.yul\":3407:3413   */\n      dup2\n        /* \"#utility.yul\":3404:3434   */\n      gt\n        /* \"#utility.yul\":3401:3518   */\n      iszero\n      tag_134\n      jumpi\n        /* \"#utility.yul\":3437:3516   */\n      tag_135\n      tag_67\n      jump\t// in\n    tag_135:\n        /* \"#utility.yul\":3401:3518   */\n    tag_134:\n        /* \"#utility.yul\":3551:3555   */\n      0x20\n        /* \"#utility.yul\":3543:3549   */\n      dup4\n        /* \"#utility.yul\":3539:3556   */\n      add\n        /* \"#utility.yul\":3527:3556   */\n      swap2\n      pop\n        /* \"#utility.yul\":3605:3608   */\n      dup4\n        /* \"#utility.yul\":3597:3601   */\n      0x01\n        /* \"#utility.yul\":3589:3595   */\n      dup3\n        /* \"#utility.yul\":3585:3602   */\n      mul\n        /* \"#utility.yul\":3575:3583   */\n      dup4\n        /* \"#utility.yul\":3571:3603   */\n      add\n        /* \"#utility.yul\":3568:3609   */\n      gt\n        /* \"#utility.yul\":3565:3693   */\n      iszero\n      tag_136\n      jumpi\n        /* \"#utility.yul\":3612:3691   */\n      tag_137\n      tag_68\n      jump\t// in\n    tag_137:\n        /* \"#utility.yul\":3565:3693   */\n    tag_136:\n        /* \"#utility.yul\":3146:3699   */\n      swap3\n      pop\n      swap3\n      swap1\n      pop\n      jump\t// out\n        /* \"#utility.yul\":3705:4379   */\n    tag_19:\n        /* \"#utility.yul\":3785:3791   */\n      0x00\n        /* \"#utility.yul\":3793:3799   */\n      0x00\n        /* \"#utility.yul\":3801:3807   */\n      0x00\n        /* \"#utility.yul\":3850:3852   */\n      0x40\n        /* \"#utility.yul\":3838:3847   */\n      dup5\n        /* \"#utility.yul\":3829:3836   */\n      dup7\n        /* \"#utility.yul\":3825:3848   */\n      sub\n        /* \"#utility.yul\":3821:3853   */\n      slt\n        /* \"#utility.yul\":3818:3937   */\n      iszero\n      tag_139\n      jumpi\n        /* \"#utility.yul\":3856:3935   */\n      tag_140\n      tag_54\n      jump\t// in\n    tag_140:\n        /* \"#utility.yul\":3818:3937   */\n    tag_139:\n        /* \"#utility.yul\":3976:3977   */\n      0x00\n        /* \"#utility.yul\":4001:4054   */\n      tag_141\n        /* \"#utility.yul\":4046:4053   */\n      dup7\n        /* \"#utility.yul\":4037:4043   */\n      dup3\n        /* \"#utility.yul\":4026:4035   */\n      dup8\n        /* \"#utility.yul\":4022:4044   */\n      add\n        /* \"#utility.yul\":4001:4054   */\n      tag_59\n      jump\t// in\n    tag_141:\n        /* \"#utility.yul\":3991:4054   */\n      swap4\n      pop\n        /* \"#utility.yul\":3947:4064   */\n      pop\n        /* \"#utility.yul\":4131:4133   */\n      0x20\n        /* \"#utility.yul\":4120:4129   */\n      dup5\n        /* \"#utility.yul\":4116:4134   */\n      add\n        /* \"#utility.yul\":4103:4135   */\n      calldataload\n        /* \"#utility.yul\":4162:4180   */\n      0xffffffffffffffff\n        /* \"#utility.yul\":4154:4160   */\n      dup2\n        /* \"#utility.yul\":4151:4181   */\n      gt\n        /* \"#utility.yul\":4148:4265   */\n      iszero\n      tag_142\n      jumpi\n        /* \"#utility.yul\":4184:4263   */\n      tag_143\n      tag_55\n      jump\t// in\n    tag_143:\n        /* \"#utility.yul\":4148:4265   */\n    tag_142:\n        /* \"#utility.yul\":4297:4362   */\n      tag_144\n        /* \"#utility.yul\":4354:4361   */\n      dup7\n        /* \"#utility.yul\":4345:4351   */\n      dup3\n        /* \"#utility.yul\":4334:4343   */\n      dup8\n        /* \"#utility.yul\":4330:4352   */\n      add\n        /* \"#utility.yul\":4297:4362   */\n      tag_69\n      jump\t// in\n    tag_144:\n        /* \"#utility.yul\":4279:4362   */\n      swap3\n      pop\n      swap3\n      pop\n        /* \"#utility.yul\":4074:4372   */\n      pop\n        /* \"#utility.yul\":3705:4379   */\n      swap3\n      pop\n      swap3\n      pop\n      swap3\n      jump\t// out\n        /* \"#utility.yul\":4385:4565   */\n    tag_70:\n        /* \"#utility.yul\":4433:4510   */\n      0x4e487b7100000000000000000000000000000000000000000000000000000000\n        /* \"#utility.yul\":4430:4431   */\n      0x00\n        /* \"#utility.yul\":4423:4511   */\n      mstore\n        /* \"#utility.yul\":4530:4534   */\n      0x22\n        /* \"#utility.yul\":4527:4528   */\n      0x04\n        /* \"#utility.yul\":4520:4535   */\n      mstore\n        /* \"#utility.yul\":4554:4558   */\n      0x24\n        /* \"#utility.yul\":4551:4552   */\n      0x00\n        /* \"#utility.yul\":4544:4559   */\n      revert\n        /* \"#utility.yul\":4571:4891   */\n    tag_26:\n        /* \"#utility.yul\":4615:4621   */\n      0x00\n        /* \"#utility.yul\":4652:4653   */\n      0x02\n        /* \"#utility.yul\":4646:4650   */\n      dup3\n        /* \"#utility.yul\":4642:4654   */\n      div\n        /* \"#utility.yul\":4632:4654   */\n      swap1\n      pop\n        /* \"#utility.yul\":4699:4700   */\n      0x01\n        /* \"#utility.yul\":4693:4697   */\n      dup3\n        /* \"#utility.yul\":4689:4701   */\n      and\n        /* \"#utility.yul\":4720:4738   */\n      dup1\n        /* \"#utility.yul\":4710:4791   */\n      tag_147\n      jumpi\n        /* \"#utility.yul\":4776:4780   */\n      0x7f\n        /* \"#utility.yul\":4768:4774   */\n      dup3\n        /* \"#utility.yul\":4764:4781   */\n      and\n        /* \"#utility.yul\":4754:4781   */\n      swap2\n      pop\n        /* \"#utility.yul\":4710:4791   */\n    tag_147:\n        /* \"#utility.yul\":4838:4840   */\n      0x20\n        /* \"#utility.yul\":4830:4836   */\n      dup3\n        /* \"#utility.yul\":4827:4841   */\n      lt\n        /* \"#utility.yul\":4807:4825   */\n      dup2\n        /* \"#utility.yul\":4804:4842   */\n      sub\n        /* \"#utility.yul\":4801:4885   */\n      tag_148\n      jumpi\n        /* \"#utility.yul\":4857:4875   */\n      tag_149\n      tag_70\n      jump\t// in\n    tag_149:\n        /* \"#utility.yul\":4801:4885   */\n    tag_148:\n        /* \"#utility.yul\":4622:4891   */\n      pop\n        /* \"#utility.yul\":4571:4891   */\n      swap2\n      swap1\n      pop\n      jump\t// out\n        /* \"#utility.yul\":4897:5128   */\n    tag_71:\n        /* \"#utility.yul\":5037:5071   */\n      0x53616d6f2061646d696e6973747261746f72206d6f7a6520697a767273697469\n        /* \"#utility.yul\":5033:5034   */\n      0x00\n        /* \"#utility.yul\":5025:5031   */\n      dup3\n        /* \"#utility.yul\":5021:5035   */\n      add\n        /* \"#utility.yul\":5014:5072   */\n      mstore\n        /* \"#utility.yul\":5106:5120   */\n      0x206f767520616b63696a75210000000000000000000000000000000000000000\n        /* \"#utility.yul\":5101:5103   */\n      0x20\n        /* \"#utility.yul\":5093:5099   */\n      dup3\n        /* \"#utility.yul\":5089:5104   */\n      add\n        /* \"#utility.yul\":5082:5121   */\n      mstore\n        /* \"#utility.yul\":4897:5128   */\n      pop\n      jump\t// out\n        /* \"#utility.yul\":5134:5500   */\n    tag_72:\n        /* \"#utility.yul\":5276:5279   */\n      0x00\n        /* \"#utility.yul\":5297:5364   */\n      tag_152\n        /* \"#utility.yul\":5361:5363   */\n      0x2c\n        /* \"#utility.yul\":5356:5359   */\n      dup4\n        /* \"#utility.yul\":5297:5364   */\n      tag_61\n      jump\t// in\n    tag_152:\n        /* \"#utility.yul\":5290:5364   */\n      swap2\n      pop\n        /* \"#utility.yul\":5373:5466   */\n      tag_153\n        /* \"#utility.yul\":5462:5465   */\n      dup3\n        /* \"#utility.yul\":5373:5466   */\n      tag_71\n      jump\t// in\n    tag_153:\n        /* \"#utility.yul\":5491:5493   */\n      0x40\n        /* \"#utility.yul\":5486:5489   */\n      dup3\n        /* \"#utility.yul\":5482:5494   */\n      add\n        /* \"#utility.yul\":5475:5494   */\n      swap1\n      pop\n        /* \"#utility.yul\":5134:5500   */\n      swap2\n      swap1\n      pop\n      jump\t// out\n        /* \"#utility.yul\":5506:5925   */\n    tag_34:\n        /* \"#utility.yul\":5672:5676   */\n      0x00\n        /* \"#utility.yul\":5710:5712   */\n      0x20\n        /* \"#utility.yul\":5699:5708   */\n      dup3\n        /* \"#utility.yul\":5695:5713   */\n      add\n        /* \"#utility.yul\":5687:5713   */\n      swap1\n      pop\n        /* \"#utility.yul\":5759:5768   */\n      dup2\n        /* \"#utility.yul\":5753:5757   */\n      dup2\n        /* \"#utility.yul\":5749:5769   */\n      sub\n        /* \"#utility.yul\":5745:5746   */\n      0x00\n        /* \"#utility.yul\":5734:5743   */\n      dup4\n        /* \"#utility.yul\":5730:5747   */\n      add\n        /* \"#utility.yul\":5723:5770   */\n      mstore\n        /* \"#utility.yul\":5787:5918   */\n      tag_155\n        /* \"#utility.yul\":5913:5917   */\n      dup2\n        /* \"#utility.yul\":5787:5918   */\n      tag_72\n      jump\t// in\n    tag_155:\n        /* \"#utility.yul\":5779:5918   */\n      swap1\n      pop\n        /* \"#utility.yul\":5506:5925   */\n      swap2\n      swap1\n      pop\n      jump\t// out\n        /* \"#utility.yul\":5931:6106   */\n    tag_73:\n        /* \"#utility.yul\":6071:6098   */\n      0x4e6576617a656361206164726573612073747564656e74612100000000000000\n        /* \"#utility.yul\":6067:6068   */\n      0x00\n        /* \"#utility.yul\":6059:6065   */\n      dup3\n        /* \"#utility.yul\":6055:6069   */\n      add\n        /* \"#utility.yul\":6048:6099   */\n      mstore\n        /* \"#utility.yul\":5931:6106   */\n      pop\n      jump\t// out\n        /* \"#utility.yul\":6112:6478   */\n    tag_74:\n        /* \"#utility.yul\":6254:6257   */\n      0x00\n        /* \"#utility.yul\":6275:6342   */\n      tag_158\n        /* \"#utility.yul\":6339:6341   */\n      0x19\n        /* \"#utility.yul\":6334:6337   */\n      dup4\n        /* \"#utility.yul\":6275:6342   */\n      tag_61\n      jump\t// in\n    tag_158:\n        /* \"#utility.yul\":6268:6342   */\n      swap2\n      pop\n        /* \"#utility.yul\":6351:6444   */\n      tag_159\n        /* \"#utility.yul\":6440:6443   */\n      dup3\n        /* \"#utility.yul\":6351:6444   */\n      tag_73\n      jump\t// in\n    tag_159:\n        /* \"#utility.yul\":6469:6471   */\n      0x20\n        /* \"#utility.yul\":6464:6467   */\n      dup3\n        /* \"#utility.yul\":6460:6472   */\n      add\n        /* \"#utility.yul\":6453:6472   */\n      swap1\n      pop\n        /* \"#utility.yul\":6112:6478   */\n      swap2\n      swap1\n      pop\n      jump\t// out\n        /* \"#utility.yul\":6484:6903   */\n    tag_38:\n        /* \"#utility.yul\":6650:6654   */\n      0x00\n        /* \"#utility.yul\":6688:6690   */\n      0x20\n        /* \"#utility.yul\":6677:6686   */\n      dup3\n        /* \"#utility.yul\":6673:6691   */\n      add\n        /* \"#utility.yul\":6665:6691   */\n      swap1\n      pop\n        /* \"#utility.yul\":6737:6746   */\n      dup2\n        /* \"#utility.yul\":6731:6735   */\n      dup2\n        /* \"#utility.yul\":6727:6747   */\n      sub\n        /* \"#utility.yul\":6723:6724   */\n      0x00\n        /* \"#utility.yul\":6712:6721   */\n      dup4\n        /* \"#utility.yul\":6708:6725   */\n      add\n        /* \"#utility.yul\":6701:6748   */\n      mstore\n        /* \"#utility.yul\":6765:6896   */\n      tag_161\n        /* \"#utility.yul\":6891:6895   */\n      dup2\n        /* \"#utility.yul\":6765:6896   */\n      tag_74\n      jump\t// in\n    tag_161:\n        /* \"#utility.yul\":6757:6896   */\n      swap1\n      pop\n        /* \"#utility.yul\":6484:6903   */\n      swap2\n      swap1\n      pop\n      jump\t// out\n        /* \"#utility.yul\":6909:7137   */\n    tag_75:\n        /* \"#utility.yul\":7049:7083   */\n      0x446574616c6a6920736572746966696b617461206e6520736d656a7520626974\n        /* \"#utility.yul\":7045:7046   */\n      0x00\n        /* \"#utility.yul\":7037:7043   */\n      dup3\n        /* \"#utility.yul\":7033:7047   */\n      add\n        /* \"#utility.yul\":7026:7084   */\n      mstore\n        /* \"#utility.yul\":7118:7129   */\n      0x69207072617a6e69210000000000000000000000000000000000000000000000\n        /* \"#utility.yul\":7113:7115   */\n      0x20\n        /* \"#utility.yul\":7105:7111   */\n      dup3\n        /* \"#utility.yul\":7101:7116   */\n      add\n        /* \"#utility.yul\":7094:7130   */\n      mstore\n        /* \"#utility.yul\":6909:7137   */\n      pop\n      jump\t// out\n        /* \"#utility.yul\":7143:7509   */\n    tag_76:\n        /* \"#utility.yul\":7285:7288   */\n      0x00\n        /* \"#utility.yul\":7306:7373   */\n      tag_164\n        /* \"#utility.yul\":7370:7372   */\n      0x29\n        /* \"#utility.yul\":7365:7368   */\n      dup4\n        /* \"#utility.yul\":7306:7373   */\n      tag_61\n      jump\t// in\n    tag_164:\n        /* \"#utility.yul\":7299:7373   */\n      swap2\n      pop\n        /* \"#utility.yul\":7382:7475   */\n      tag_165\n        /* \"#utility.yul\":7471:7474   */\n      dup3\n        /* \"#utility.yul\":7382:7475   */\n      tag_75\n      jump\t// in\n    tag_165:\n        /* \"#utility.yul\":7500:7502   */\n      0x40\n        /* \"#utility.yul\":7495:7498   */\n      dup3\n        /* \"#utility.yul\":7491:7503   */\n      add\n        /* \"#utility.yul\":7484:7503   */\n      swap1\n      pop\n        /* \"#utility.yul\":7143:7509   */\n      swap2\n      swap1\n      pop\n      jump\t// out\n        /* \"#utility.yul\":7515:7934   */\n    tag_41:\n        /* \"#utility.yul\":7681:7685   */\n      0x00\n        /* \"#utility.yul\":7719:7721   */\n      0x20\n        /* \"#utility.yul\":7708:7717   */\n      dup3\n        /* \"#utility.yul\":7704:7722   */\n      add\n        /* \"#utility.yul\":7696:7722   */\n      swap1\n      pop\n        /* \"#utility.yul\":7768:7777   */\n      dup2\n        /* \"#utility.yul\":7762:7766   */\n      dup2\n        /* \"#utility.yul\":7758:7778   */\n      sub\n        /* \"#utility.yul\":7754:7755   */\n      0x00\n        /* \"#utility.yul\":7743:7752   */\n      dup4\n        /* \"#utility.yul\":7739:7756   */\n      add\n        /* \"#utility.yul\":7732:7779   */\n      mstore\n        /* \"#utility.yul\":7796:7927   */\n      tag_167\n        /* \"#utility.yul\":7922:7926   */\n      dup2\n        /* \"#utility.yul\":7796:7927   */\n      tag_76\n      jump\t// in\n    tag_167:\n        /* \"#utility.yul\":7788:7927   */\n      swap1\n      pop\n        /* \"#utility.yul\":7515:7934   */\n      swap2\n      swap1\n      pop\n      jump\t// out\n        /* \"#utility.yul\":7940:8037   */\n    tag_77:\n        /* \"#utility.yul\":7999:8005   */\n      0x00\n        /* \"#utility.yul\":8027:8030   */\n      dup3\n        /* \"#utility.yul\":8017:8030   */\n      swap1\n      pop\n        /* \"#utility.yul\":7940:8037   */\n      swap3\n      swap2\n      pop\n      pop\n      jump\t// out\n        /* \"#utility.yul\":8043:8223   */\n    tag_78:\n        /* \"#utility.yul\":8091:8168   */\n      0x4e487b7100000000000000000000000000000000000000000000000000000000\n        /* \"#utility.yul\":8088:8089   */\n      0x00\n        /* \"#utility.yul\":8081:8169   */\n      mstore\n        /* \"#utility.yul\":8188:8192   */\n      0x41\n        /* \"#utility.yul\":8185:8186   */\n      0x04\n        /* \"#utility.yul\":8178:8193   */\n      mstore\n        /* \"#utility.yul\":8212:8216   */\n      0x24\n        /* \"#utility.yul\":8209:8210   */\n      0x00\n        /* \"#utility.yul\":8202:8217   */\n      revert\n        /* \"#utility.yul\":8229:8370   */\n    tag_79:\n        /* \"#utility.yul\":8278:8282   */\n      0x00\n        /* \"#utility.yul\":8301:8304   */\n      dup2\n        /* \"#utility.yul\":8293:8304   */\n      swap1\n      pop\n        /* \"#utility.yul\":8324:8327   */\n      dup2\n        /* \"#utility.yul\":8321:8322   */\n      0x00\n        /* \"#utility.yul\":8314:8328   */\n      mstore\n        /* \"#utility.yul\":8358:8362   */\n      0x20\n        /* \"#utility.yul\":8355:8356   */\n      0x00\n        /* \"#utility.yul\":8345:8363   */\n      keccak256\n        /* \"#utility.yul\":8337:8363   */\n      swap1\n      pop\n        /* \"#utility.yul\":8229:8370   */\n      swap2\n      swap1\n      pop\n      jump\t// out\n        /* \"#utility.yul\":8376:8469   */\n    tag_80:\n        /* \"#utility.yul\":8413:8419   */\n      0x00\n        /* \"#utility.yul\":8460:8462   */\n      0x20\n        /* \"#utility.yul\":8455:8457   */\n      0x1f\n        /* \"#utility.yul\":8448:8453   */\n      dup4\n        /* \"#utility.yul\":8444:8458   */\n      add\n        /* \"#utility.yul\":8440:8463   */\n      div\n        /* \"#utility.yul\":8430:8463   */\n      swap1\n      pop\n        /* \"#utility.yul\":8376:8469   */\n      swap2\n      swap1\n      pop\n      jump\t// out\n        /* \"#utility.yul\":8475:8582   */\n    tag_81:\n        /* \"#utility.yul\":8519:8527   */\n      0x00\n        /* \"#utility.yul\":8569:8574   */\n      dup3\n        /* \"#utility.yul\":8563:8567   */\n      dup3\n        /* \"#utility.yul\":8559:8575   */\n      shl\n        /* \"#utility.yul\":8538:8575   */\n      swap1\n      pop\n        /* \"#utility.yul\":8475:8582   */\n      swap3\n      swap2\n      pop\n      pop\n      jump\t// out\n        /* \"#utility.yul\":8588:8981   */\n    tag_82:\n        /* \"#utility.yul\":8657:8663   */\n      0x00\n        /* \"#utility.yul\":8707:8708   */\n      0x08\n        /* \"#utility.yul\":8695:8705   */\n      dup4\n        /* \"#utility.yul\":8691:8709   */\n      mul\n        /* \"#utility.yul\":8730:8827   */\n      tag_174\n        /* \"#utility.yul\":8760:8826   */\n      0xffffffffffffffffffffffffffffffffffffffffffffffffffffffffffffffff\n        /* \"#utility.yul\":8749:8758   */\n      dup3\n        /* \"#utility.yul\":8730:8827   */\n      tag_81\n      jump\t// in\n    tag_174:\n        /* \"#utility.yul\":8848:8887   */\n      tag_175\n        /* \"#utility.yul\":8878:8886   */\n      dup7\n        /* \"#utility.yul\":8867:8876   */\n      dup4\n        /* \"#utility.yul\":8848:8887   */\n      tag_81\n      jump\t// in\n    tag_175:\n        /* \"#utility.yul\":8836:8887   */\n      swap6\n      pop\n        /* \"#utility.yul\":8920:8924   */\n      dup1\n        /* \"#utility.yul\":8916:8925   */\n      not\n        /* \"#utility.yul\":8909:8914   */\n      dup5\n        /* \"#utility.yul\":8905:8926   */\n      and\n        /* \"#utility.yul\":8896:8926   */\n      swap4\n      pop\n        /* \"#utility.yul\":8969:8973   */\n      dup1\n        /* \"#utility.yul\":8959:8967   */\n      dup7\n        /* \"#utility.yul\":8955:8974   */\n      and\n        /* \"#utility.yul\":8948:8953   */\n      dup5\n        /* \"#utility.yul\":8945:8975   */\n      or\n        /* \"#utility.yul\":8935:8975   */\n      swap3\n      pop\n        /* \"#utility.yul\":8664:8981   */\n      pop\n      pop\n        /* \"#utility.yul\":8588:8981   */\n      swap4\n      swap3\n      pop\n      pop\n      pop\n      jump\t// out\n        /* \"#utility.yul\":8987:9064   */\n    tag_83:\n        /* \"#utility.yul\":9024:9031   */\n      0x00\n        /* \"#utility.yul\":9053:9058   */\n      dup2\n        /* \"#utility.yul\":9042:9058   */\n      swap1\n      pop\n        /* \"#utility.yul\":8987:9064   */\n      swap2\n      swap1\n      pop\n      jump\t// out\n        /* \"#utility.yul\":9070:9130   */\n    tag_84:\n        /* \"#utility.yul\":9098:9101   */\n      0x00\n        /* \"#utility.yul\":9119:9124   */\n      dup2\n        /* \"#utility.yul\":9112:9124   */\n      swap1\n      pop\n        /* \"#utility.yul\":9070:9130   */\n      swap2\n      swap1\n      pop\n      jump\t// out\n        /* \"#utility.yul\":9136:9278   */\n    tag_85:\n        /* \"#utility.yul\":9186:9195   */\n      0x00\n        /* \"#utility.yul\":9219:9272   */\n      tag_179\n        /* \"#utility.yul\":9237:9271   */\n      tag_180\n        /* \"#utility.yul\":9246:9270   */\n      tag_181\n        /* \"#utility.yul\":9264:9269   */\n      dup5\n        /* \"#utility.yul\":9246:9270   */\n      tag_83\n      jump\t// in\n    tag_181:\n        /* \"#utility.yul\":9237:9271   */\n      tag_84\n      jump\t// in\n    tag_180:\n        /* \"#utility.yul\":9219:9272   */\n      tag_83\n      jump\t// in\n    tag_179:\n        /* \"#utility.yul\":9206:9272   */\n      swap1\n      pop\n        /* \"#utility.yul\":9136:9278   */\n      swap2\n      swap1\n      pop\n      jump\t// out\n        /* \"#utility.yul\":9284:9359   */\n    tag_86:\n        /* \"#utility.yul\":9327:9330   */\n      0x00\n        /* \"#utility.yul\":9348:9353   */\n      dup2\n        /* \"#utility.yul\":9341:9353   */\n      swap1\n      pop\n        /* \"#utility.yul\":9284:9359   */\n      swap2\n      swap1\n      pop\n      jump\t// out\n        /* \"#utility.yul\":9365:9634   */\n    tag_87:\n        /* \"#utility.yul\":9475:9514   */\n      tag_184\n        /* \"#utility.yul\":9506:9513   */\n      dup4\n        /* \"#utility.yul\":9475:9514   */\n      tag_85\n      jump\t// in\n    tag_184:\n        /* \"#utility.yul\":9536:9627   */\n      tag_185\n        /* \"#utility.yul\":9585:9626   */\n      tag_186\n        /* \"#utility.yul\":9609:9625   */\n      dup3\n        /* \"#utility.yul\":9585:9626   */\n      tag_86\n      jump\t// in\n    tag_186:\n        /* \"#utility.yul\":9577:9583   */\n      dup5\n        /* \"#utility.yul\":9570:9574   */\n      dup5\n        /* \"#utility.yul\":9564:9575   */\n      sload\n        /* \"#utility.yul\":9536:9627   */\n      tag_82\n      jump\t// in\n    tag_185:\n        /* \"#utility.yul\":9530:9534   */\n      dup3\n        /* \"#utility.yul\":9523:9628   */\n      sstore\n        /* \"#utility.yul\":9441:9634   */\n      pop\n        /* \"#utility.yul\":9365:9634   */\n      pop\n      pop\n      pop\n      jump\t// out\n        /* \"#utility.yul\":9640:9713   */\n    tag_88:\n        /* \"#utility.yul\":9685:9688   */\n      0x00\n        /* \"#utility.yul\":9706:9707   */\n      0x00\n        /* \"#utility.yul\":9699:9707   */\n      swap1\n      pop\n        /* \"#utility.yul\":9640:9713   */\n      swap1\n      jump\t// out\n        /* \"#utility.yul\":9719:9908   */\n    tag_89:\n        /* \"#utility.yul\":9796:9828   */\n      tag_189\n      tag_88\n      jump\t// in\n    tag_189:\n        /* \"#utility.yul\":9837:9902   */\n      tag_190\n        /* \"#utility.yul\":9895:9901   */\n      dup2\n        /* \"#utility.yul\":9887:9893   */\n      dup5\n        /* \"#utility.yul\":9881:9885   */\n      dup5\n        /* \"#utility.yul\":9837:9902   */\n      tag_87\n      jump\t// in\n    tag_190:\n        /* \"#utility.yul\":9772:9908   */\n      pop\n        /* \"#utility.yul\":9719:9908   */\n      pop\n      pop\n      jump\t// out\n        /* \"#utility.yul\":9914:10100   */\n    tag_90:\n        /* \"#utility.yul\":9974:10094   */\n    tag_192:\n        /* \"#utility.yul\":9991:9994   */\n      dup2\n        /* \"#utility.yul\":9984:9989   */\n      dup2\n        /* \"#utility.yul\":9981:9995   */\n      lt\n        /* \"#utility.yul\":9974:10094   */\n      iszero\n      tag_194\n      jumpi\n        /* \"#utility.yul\":10045:10084   */\n      tag_195\n        /* \"#utility.yul\":10082:10083   */\n      0x00\n        /* \"#utility.yul\":10075:10080   */\n      dup3\n        /* \"#utility.yul\":10045:10084   */\n      tag_89\n      jump\t// in\n    tag_195:\n        /* \"#utility.yul\":10018:10019   */\n      0x01\n        /* \"#utility.yul\":10011:10016   */\n      dup2\n        /* \"#utility.yul\":10007:10020   */\n      add\n        /* \"#utility.yul\":9998:10020   */\n      swap1\n      pop\n        /* \"#utility.yul\":9974:10094   */\n      jump(tag_192)\n    tag_194:\n        /* \"#utility.yul\":9914:10100   */\n      pop\n      pop\n      jump\t// out\n        /* \"#utility.yul\":10106:10649   */\n    tag_91:\n        /* \"#utility.yul\":10207:10209   */\n      0x1f\n        /* \"#utility.yul\":10202:10205   */\n      dup3\n        /* \"#utility.yul\":10199:10210   */\n      gt\n        /* \"#utility.yul\":10196:10642   */\n      iszero\n      tag_197\n      jumpi\n        /* \"#utility.yul\":10241:10279   */\n      tag_198\n        /* \"#utility.yul\":10273:10278   */\n      dup2\n        /* \"#utility.yul\":10241:10279   */\n      tag_79\n      jump\t// in\n    tag_198:\n        /* \"#utility.yul\":10325:10354   */\n      tag_199\n        /* \"#utility.yul\":10343:10353   */\n      dup5\n        /* \"#utility.yul\":10325:10354   */\n      tag_80\n      jump\t// in\n    tag_199:\n        /* \"#utility.yul\":10315:10323   */\n      dup2\n        /* \"#utility.yul\":10311:10355   */\n      add\n        /* \"#utility.yul\":10508:10510   */\n      0x20\n        /* \"#utility.yul\":10496:10506   */\n      dup6\n        /* \"#utility.yul\":10493:10511   */\n      lt\n        /* \"#utility.yul\":10490:10539   */\n      iszero\n      tag_200\n      jumpi\n        /* \"#utility.yul\":10529:10537   */\n      dup2\n        /* \"#utility.yul\":10514:10537   */\n      swap1\n      pop\n        /* \"#utility.yul\":10490:10539   */\n    tag_200:\n        /* \"#utility.yul\":10552:10632   */\n      tag_201\n        /* \"#utility.yul\":10608:10630   */\n      tag_202\n        /* \"#utility.yul\":10626:10629   */\n      dup6\n        /* \"#utility.yul\":10608:10630   */\n      tag_80\n      jump\t// in\n    tag_202:\n        /* \"#utility.yul\":10598:10606   */\n      dup4\n        /* \"#utility.yul\":10594:10631   */\n      add\n        /* \"#utility.yul\":10581:10592   */\n      dup3\n        /* \"#utility.yul\":10552:10632   */\n      tag_90\n      jump\t// in\n    tag_201:\n        /* \"#utility.yul\":10211:10642   */\n      pop\n      pop\n        /* \"#utility.yul\":10196:10642   */\n    tag_197:\n        /* \"#utility.yul\":10106:10649   */\n      pop\n      pop\n      pop\n      jump\t// out\n        /* \"#utility.yul\":10655:10772   */\n    tag_92:\n        /* \"#utility.yul\":10709:10717   */\n      0x00\n        /* \"#utility.yul\":10759:10764   */\n      dup3\n        /* \"#utility.yul\":10753:10757   */\n      dup3\n        /* \"#utility.yul\":10749:10765   */\n      shr\n        /* \"#utility.yul\":10728:10765   */\n      swap1\n      pop\n        /* \"#utility.yul\":10655:10772   */\n      swap3\n      swap2\n      pop\n      pop\n      jump\t// out\n        /* \"#utility.yul\":10778:10947   */\n    tag_93:\n        /* \"#utility.yul\":10822:10828   */\n      0x00\n        /* \"#utility.yul\":10855:10906   */\n      tag_205\n        /* \"#utility.yul\":10903:10904   */\n      0x00\n        /* \"#utility.yul\":10899:10905   */\n      not\n        /* \"#utility.yul\":10891:10896   */\n      dup5\n        /* \"#utility.yul\":10888:10889   */\n      0x08\n        /* \"#utility.yul\":10884:10897   */\n      mul\n        /* \"#utility.yul\":10855:10906   */\n      tag_92\n      jump\t// in\n    tag_205:\n        /* \"#utility.yul\":10851:10907   */\n      not\n        /* \"#utility.yul\":10936:10940   */\n      dup1\n        /* \"#utility.yul\":10930:10934   */\n      dup4\n        /* \"#utility.yul\":10926:10941   */\n      and\n        /* \"#utility.yul\":10916:10941   */\n      swap2\n      pop\n        /* \"#utility.yul\":10829:10947   */\n      pop\n        /* \"#utility.yul\":10778:10947   */\n      swap3\n      swap2\n      pop\n      pop\n      jump\t// out\n        /* \"#utility.yul\":10952:11247   */\n    tag_94:\n        /* \"#utility.yul\":11028:11032   */\n      0x00\n        /* \"#utility.yul\":11174:11203   */\n      tag_207\n        /* \"#utility.yul\":11199:11202   */\n      dup4\n        /* \"#utility.yul\":11193:11197   */\n      dup4\n        /* \"#utility.yul\":11174:11203   */\n      tag_93\n      jump\t// in\n    tag_207:\n        /* \"#utility.yul\":11166:11203   */\n      swap2\n      pop\n        /* \"#utility.yul\":11236:11239   */\n      dup3\n        /* \"#utility.yul\":11233:11234   */\n      0x02\n        /* \"#utility.yul\":11229:11240   */\n      mul\n        /* \"#utility.yul\":11223:11227   */\n      dup3\n        /* \"#utility.yul\":11220:11241   */\n      or\n        /* \"#utility.yul\":11212:11241   */\n      swap1\n      pop\n        /* \"#utility.yul\":10952:11247   */\n      swap3\n      swap2\n      pop\n      pop\n      jump\t// out\n        /* \"#utility.yul\":11252:12655   */\n    tag_43:\n        /* \"#utility.yul\":11376:11420   */\n      tag_209\n        /* \"#utility.yul\":11416:11419   */\n      dup4\n        /* \"#utility.yul\":11411:11414   */\n      dup4\n        /* \"#utility.yul\":11376:11420   */\n      tag_77\n      jump\t// in\n    tag_209:\n        /* \"#utility.yul\":11485:11503   */\n      0xffffffffffffffff\n        /* \"#utility.yul\":11477:11483   */\n      dup2\n        /* \"#utility.yul\":11474:11504   */\n      gt\n        /* \"#utility.yul\":11471:11527   */\n      iszero\n      tag_210\n      jumpi\n        /* \"#utility.yul\":11507:11525   */\n      tag_211\n      tag_78\n      jump\t// in\n    tag_211:\n        /* \"#utility.yul\":11471:11527   */\n    tag_210:\n        /* \"#utility.yul\":11551:11589   */\n      tag_212\n        /* \"#utility.yul\":11583:11587   */\n      dup3\n        /* \"#utility.yul\":11577:11588   */\n      sload\n        /* \"#utility.yul\":11551:11589   */\n      tag_26\n      jump\t// in\n    tag_212:\n        /* \"#utility.yul\":11636:11703   */\n      tag_213\n        /* \"#utility.yul\":11696:11702   */\n      dup3\n        /* \"#utility.yul\":11688:11694   */\n      dup3\n        /* \"#utility.yul\":11682:11686   */\n      dup6\n        /* \"#utility.yul\":11636:11703   */\n      tag_91\n      jump\t// in\n    tag_213:\n        /* \"#utility.yul\":11730:11731   */\n      0x00\n        /* \"#utility.yul\":11759:11761   */\n      0x1f\n        /* \"#utility.yul\":11751:11757   */\n      dup4\n        /* \"#utility.yul\":11748:11762   */\n      gt\n        /* \"#utility.yul\":11776:11777   */\n      0x01\n        /* \"#utility.yul\":11771:12403   */\n      dup2\n      eq\n      tag_215\n      jumpi\n        /* \"#utility.yul\":12447:12448   */\n      0x00\n        /* \"#utility.yul\":12464:12470   */\n      dup5\n        /* \"#utility.yul\":12461:12545   */\n      iszero\n      tag_216\n      jumpi\n        /* \"#utility.yul\":12520:12529   */\n      dup3\n        /* \"#utility.yul\":12515:12518   */\n      dup8\n        /* \"#utility.yul\":12511:12530   */\n      add\n        /* \"#utility.yul\":12498:12531   */\n      calldataload\n        /* \"#utility.yul\":12489:12531   */\n      swap1\n      pop\n        /* \"#utility.yul\":12461:12545   */\n    tag_216:\n        /* \"#utility.yul\":12571:12638   */\n      tag_217\n        /* \"#utility.yul\":12631:12637   */\n      dup6\n        /* \"#utility.yul\":12624:12629   */\n      dup3\n        /* \"#utility.yul\":12571:12638   */\n      tag_94\n      jump\t// in\n    tag_217:\n        /* \"#utility.yul\":12565:12569   */\n      dup7\n        /* \"#utility.yul\":12558:12639   */\n      sstore\n        /* \"#utility.yul\":12420:12649   */\n      pop\n        /* \"#utility.yul\":11741:12649   */\n      jump(tag_214)\n        /* \"#utility.yul\":11771:12403   */\n    tag_215:\n        /* \"#utility.yul\":11823:11827   */\n      0x1f\n        /* \"#utility.yul\":11819:11828   */\n      not\n        /* \"#utility.yul\":11811:11817   */\n      dup5\n        /* \"#utility.yul\":11807:11829   */\n      and\n        /* \"#utility.yul\":11857:11894   */\n      tag_218\n        /* \"#utility.yul\":11889:11893   */\n      dup7\n        /* \"#utility.yul\":11857:11894   */\n      tag_79\n      jump\t// in\n    tag_218:\n        /* \"#utility.yul\":11916:11917   */\n      0x00\n        /* \"#utility.yul\":11930:12145   */\n    tag_219:\n        /* \"#utility.yul\":11944:11951   */\n      dup3\n        /* \"#utility.yul\":11941:11942   */\n      dup2\n        /* \"#utility.yul\":11938:11952   */\n      lt\n        /* \"#utility.yul\":11930:12145   */\n      iszero\n      tag_221\n      jumpi\n        /* \"#utility.yul\":12030:12039   */\n      dup5\n        /* \"#utility.yul\":12025:12028   */\n      dup10\n        /* \"#utility.yul\":12021:12040   */\n      add\n        /* \"#utility.yul\":12008:12041   */\n      calldataload\n        /* \"#utility.yul\":12000:12006   */\n      dup3\n        /* \"#utility.yul\":11993:12042   */\n      sstore\n        /* \"#utility.yul\":12081:12082   */\n      0x01\n        /* \"#utility.yul\":12073:12079   */\n      dup3\n        /* \"#utility.yul\":12069:12083   */\n      add\n        /* \"#utility.yul\":12059:12083   */\n      swap2\n      pop\n        /* \"#utility.yul\":12128:12130   */\n      0x20\n        /* \"#utility.yul\":12117:12126   */\n      dup6\n        /* \"#utility.yul\":12113:12131   */\n      add\n        /* \"#utility.yul\":12100:12131   */\n      swap5\n      pop\n        /* \"#utility.yul\":11967:11971   */\n      0x20\n        /* \"#utility.yul\":11964:11965   */\n      dup2\n        /* \"#utility.yul\":11960:11972   */\n      add\n        /* \"#utility.yul\":11955:11972   */\n      swap1\n      pop\n        /* \"#utility.yul\":11930:12145   */\n      jump(tag_219)\n    tag_221:\n        /* \"#utility.yul\":12173:12179   */\n      dup7\n        /* \"#utility.yul\":12164:12171   */\n      dup4\n        /* \"#utility.yul\":12161:12180   */\n      lt\n        /* \"#utility.yul\":12158:12344   */\n      iszero\n      tag_222\n      jumpi\n        /* \"#utility.yul\":12238:12247   */\n      dup5\n        /* \"#utility.yul\":12233:12236   */\n      dup10\n        /* \"#utility.yul\":12229:12248   */\n      add\n        /* \"#utility.yul\":12216:12249   */\n      calldataload\n        /* \"#utility.yul\":12281:12329   */\n      tag_223\n        /* \"#utility.yul\":12323:12327   */\n      0x1f\n        /* \"#utility.yul\":12315:12321   */\n      dup10\n        /* \"#utility.yul\":12311:12328   */\n      and\n        /* \"#utility.yul\":12300:12309   */\n      dup3\n        /* \"#utility.yul\":12281:12329   */\n      tag_93\n      jump\t// in\n    tag_223:\n        /* \"#utility.yul\":12273:12279   */\n      dup4\n        /* \"#utility.yul\":12266:12330   */\n      sstore\n        /* \"#utility.yul\":12181:12344   */\n      pop\n        /* \"#utility.yul\":12158:12344   */\n    tag_222:\n        /* \"#utility.yul\":12390:12391   */\n      0x01\n        /* \"#utility.yul\":12386:12387   */\n      0x02\n        /* \"#utility.yul\":12378:12384   */\n      dup9\n        /* \"#utility.yul\":12374:12388   */\n      mul\n        /* \"#utility.yul\":12370:12392   */\n      add\n        /* \"#utility.yul\":12364:12368   */\n      dup9\n        /* \"#utility.yul\":12357:12393   */\n      sstore\n        /* \"#utility.yul\":11778:12403   */\n      pop\n      pop\n      pop\n        /* \"#utility.yul\":11741:12649   */\n    tag_214:\n      pop\n        /* \"#utility.yul\":11351:12655   */\n      pop\n      pop\n      pop\n        /* \"#utility.yul\":11252:12655   */\n      pop\n      pop\n      pop\n      jump\t// out\n        /* \"#utility.yul\":12661:12809   */\n    tag_95:\n        /* \"#utility.yul\":12759:12765   */\n      dup3\n        /* \"#utility.yul\":12754:12757   */\n      dup2\n        /* \"#utility.yul\":12749:12752   */\n      dup4\n        /* \"#utility.yul\":12736:12766   */\n      calldatacopy\n        /* \"#utility.yul\":12800:12801   */\n      0x00\n        /* \"#utility.yul\":12791:12797   */\n      dup4\n        /* \"#utility.yul\":12786:12789   */\n      dup4\n        /* \"#utility.yul\":12782:12798   */\n      add\n        /* \"#utility.yul\":12775:12802   */\n      mstore\n        /* \"#utility.yul\":12661:12809   */\n      pop\n      pop\n      pop\n      jump\t// out\n        /* \"#utility.yul\":12839:13156   */\n    tag_96:\n        /* \"#utility.yul\":12937:12940   */\n      0x00\n        /* \"#utility.yul\":12958:13029   */\n      tag_226\n        /* \"#utility.yul\":13022:13028   */\n      dup4\n        /* \"#utility.yul\":13017:13020   */\n      dup6\n        /* \"#utility.yul\":12958:13029   */\n      tag_61\n      jump\t// in\n    tag_226:\n        /* \"#utility.yul\":12951:13029   */\n      swap4\n      pop\n        /* \"#utility.yul\":13039:13095   */\n      tag_227\n        /* \"#utility.yul\":13088:13094   */\n      dup4\n        /* \"#utility.yul\":13083:13086   */\n      dup6\n        /* \"#utility.yul\":13076:13081   */\n      dup5\n        /* \"#utility.yul\":13039:13095   */\n      tag_95\n      jump\t// in\n    tag_227:\n        /* \"#utility.yul\":13120:13149   */\n      tag_228\n        /* \"#utility.yul\":13142:13148   */\n      dup4\n        /* \"#utility.yul\":13120:13149   */\n      tag_63\n      jump\t// in\n    tag_228:\n        /* \"#utility.yul\":13115:13118   */\n      dup5\n        /* \"#utility.yul\":13111:13150   */\n      add\n        /* \"#utility.yul\":13104:13150   */\n      swap1\n      pop\n        /* \"#utility.yul\":12839:13156   */\n      swap4\n      swap3\n      pop\n      pop\n      pop\n      jump\t// out\n        /* \"#utility.yul\":13162:13495   */\n    tag_45:\n        /* \"#utility.yul\":13285:13289   */\n      0x00\n        /* \"#utility.yul\":13323:13325   */\n      0x20\n        /* \"#utility.yul\":13312:13321   */\n      dup3\n        /* \"#utility.yul\":13308:13326   */\n      add\n        /* \"#utility.yul\":13300:13326   */\n      swap1\n      pop\n        /* \"#utility.yul\":13372:13381   */\n      dup2\n        /* \"#utility.yul\":13366:13370   */\n      dup2\n        /* \"#utility.yul\":13362:13382   */\n      sub\n        /* \"#utility.yul\":13358:13359   */\n      0x00\n        /* \"#utility.yul\":13347:13356   */\n      dup4\n        /* \"#utility.yul\":13343:13360   */\n      add\n        /* \"#utility.yul\":13336:13383   */\n      mstore\n        /* \"#utility.yul\":13400:13488   */\n      tag_230\n        /* \"#utility.yul\":13483:13487   */\n      dup2\n        /* \"#utility.yul\":13474:13480   */\n      dup5\n        /* \"#utility.yul\":13466:13472   */\n      dup7\n        /* \"#utility.yul\":13400:13488   */\n      tag_96\n      jump\t// in\n    tag_230:\n        /* \"#utility.yul\":13392:13488   */\n      swap1\n      pop\n        /* \"#utility.yul\":13162:13495   */\n      swap4\n      swap3\n      pop\n      pop\n      pop\n      jump\t// out\n    stop\n    data_f5ff73c7690b5a773971b65cc0edbbd428e873e91dd2cf0a5f009d76d56ff4d1 536572746966696b6174206e696a652070726f6e61646a656e207a61206f7675206164726573752e\n\n    auxdata: 0xa2646970667358221220bad3afe83b2a550f315e8e2ce152e61c6da6d89448f43262634418d20dc8523764736f6c634300081f0033\n}\n",
				"bytecode": {
					"linkReferences": {},
					"object": "6080604052348015600e575f5ffd5b50335f5f6101000a81548173ffffffffffffffffffffffffffffffffffffffff021916908373ffffffffffffffffffffffffffffffffffffffff160217905550610bd08061005b5f395ff3fe608060405234801561000f575f5ffd5b5060043610610049575f3560e01c806216e5261461004d5780638da5cb5b1461007d578063bb721aab1461009b578063fd531e93146100b7575b5f5ffd5b610067600480360381019061006291906104e7565b6100e7565b6040516100749190610582565b60405180910390f35b610085610182565b60405161009291906105b1565b60405180910390f35b6100b560048036038101906100b0919061062b565b6101a6565b005b6100d160048036038101906100cc91906104e7565b610389565b6040516100de9190610582565b60405180910390f35b6001602052805f5260405f205f915090508054610103906106b5565b80601f016020809104026020016040519081016040528092919081815260200182805461012f906106b5565b801561017a5780601f106101515761010080835404028352916020019161017a565b820191905f5260205f20905b81548152906001019060200180831161015d57829003601f168201915b505050505081565b5f5f9054906101000a900473ffffffffffffffffffffffffffffffffffffffff1681565b5f5f9054906101000a900473ffffffffffffffffffffffffffffffffffffffff1673ffffffffffffffffffffffffffffffffffffffff163373ffffffffffffffffffffffffffffffffffffffff1614610234576040517f08c379a000000000000000000000000000000000000000000000000000000000815260040161022b90610755565b60405180910390fd5b5f73ffffffffffffffffffffffffffffffffffffffff168373ffffffffffffffffffffffffffffffffffffffff16036102a2576040517f08c379a0000000000000000000000000000000000000000000000000000000008152600401610299906107bd565b60405180910390fd5b5f82829050116102e7576040517f08c379a00000000000000000000000000000000000000000000000000000000081526004016102de9061084b565b60405180910390fd5b818160015f8673ffffffffffffffffffffffffffffffffffffffff1673ffffffffffffffffffffffffffffffffffffffff1681526020019081526020015f209182610333929190610a49565b508273ffffffffffffffffffffffffffffffffffffffff167f4514a45e6f56567008e790fe2158e66d34e8b8254c060ad061d5702748791479838360405161037c929190610b50565b60405180910390a2505050565b60605f60015f8473ffffffffffffffffffffffffffffffffffffffff1673ffffffffffffffffffffffffffffffffffffffff1681526020019081526020015f2080546103d4906106b5565b80601f0160208091040260200160405190810160405280929190818152602001828054610400906106b5565b801561044b5780601f106104225761010080835404028352916020019161044b565b820191905f5260205f20905b81548152906001019060200180831161042e57829003601f168201915b505050505090505f81510361047b57604051806060016040528060288152602001610b7360289139915050610480565b809150505b919050565b5f5ffd5b5f5ffd5b5f73ffffffffffffffffffffffffffffffffffffffff82169050919050565b5f6104b68261048d565b9050919050565b6104c6816104ac565b81146104d0575f5ffd5b50565b5f813590506104e1816104bd565b92915050565b5f602082840312156104fc576104fb610485565b5b5f610509848285016104d3565b91505092915050565b5f81519050919050565b5f82825260208201905092915050565b8281835e5f83830152505050565b5f601f19601f8301169050919050565b5f61055482610512565b61055e818561051c565b935061056e81856020860161052c565b6105778161053a565b840191505092915050565b5f6020820190508181035f83015261059a818461054a565b905092915050565b6105ab816104ac565b82525050565b5f6020820190506105c45f8301846105a2565b92915050565b5f5ffd5b5f5ffd5b5f5ffd5b5f5f83601f8401126105eb576105ea6105ca565b5b8235905067ffffffffffffffff811115610608576106076105ce565b5b602083019150836001820283011115610624576106236105d2565b5b9250929050565b5f5f5f6040848603121561064257610641610485565b5b5f61064f868287016104d3565b935050602084013567ffffffffffffffff8111156106705761066f610489565b5b61067c868287016105d6565b92509250509250925092565b7f4e487b71000000000000000000000000000000000000000000000000000000005f52602260045260245ffd5b5f60028204905060018216806106cc57607f821691505b6020821081036106df576106de610688565b5b50919050565b7f53616d6f2061646d696e6973747261746f72206d6f7a6520697a7672736974695f8201527f206f767520616b63696a75210000000000000000000000000000000000000000602082015250565b5f61073f602c8361051c565b915061074a826106e5565b604082019050919050565b5f6020820190508181035f83015261076c81610733565b9050919050565b7f4e6576617a656361206164726573612073747564656e746121000000000000005f82015250565b5f6107a760198361051c565b91506107b282610773565b602082019050919050565b5f6020820190508181035f8301526107d48161079b565b9050919050565b7f446574616c6a6920736572746966696b617461206e6520736d656a75206269745f8201527f69207072617a6e69210000000000000000000000000000000000000000000000602082015250565b5f61083560298361051c565b9150610840826107db565b604082019050919050565b5f6020820190508181035f83015261086281610829565b9050919050565b5f82905092915050565b7f4e487b71000000000000000000000000000000000000000000000000000000005f52604160045260245ffd5b5f819050815f5260205f209050919050565b5f6020601f8301049050919050565b5f82821b905092915050565b5f600883026108fc7fffffffffffffffffffffffffffffffffffffffffffffffffffffffffffffffff826108c1565b61090686836108c1565b95508019841693508086168417925050509392505050565b5f819050919050565b5f819050919050565b5f61094a6109456109408461091e565b610927565b61091e565b9050919050565b5f819050919050565b61096383610930565b61097761096f82610951565b8484546108cd565b825550505050565b5f5f905090565b61098e61097f565b61099981848461095a565b505050565b5b818110156109bc576109b15f82610986565b60018101905061099f565b5050565b601f821115610a01576109d2816108a0565b6109db846108b2565b810160208510156109ea578190505b6109fe6109f6856108b2565b83018261099e565b50505b505050565b5f82821c905092915050565b5f610a215f1984600802610a06565b1980831691505092915050565b5f610a398383610a12565b9150826002028217905092915050565b610a538383610869565b67ffffffffffffffff811115610a6c57610a6b610873565b5b610a7682546106b5565b610a818282856109c0565b5f601f831160018114610aae575f8415610a9c578287013590505b610aa68582610a2e565b865550610b0d565b601f198416610abc866108a0565b5f5b82811015610ae357848901358255600182019150602085019450602081019050610abe565b86831015610b005784890135610afc601f891682610a12565b8355505b6001600288020188555050505b50505050505050565b828183375f83830152505050565b5f610b2f838561051c565b9350610b3c838584610b16565b610b458361053a565b840190509392505050565b5f6020820190508181035f830152610b69818486610b24565b9050939250505056fe536572746966696b6174206e696a652070726f6e61646a656e207a61206f7675206164726573752ea2646970667358221220bad3afe83b2a550f315e8e2ce152e61c6da6d89448f43262634418d20dc8523764736f6c634300081f0033",
					"opcodes": "PUSH1 0x80 PUSH1 0x40 MSTORE CALLVALUE DUP1 ISZERO PUSH1 0xE JUMPI PUSH0 PUSH0 REVERT JUMPDEST POP CALLER PUSH0 PUSH0 PUSH2 0x100 EXP DUP2 SLOAD DUP2 PUSH20 0xFFFFFFFFFFFFFFFFFFFFFFFFFFFFFFFFFFFFFFFF MUL NOT AND SWAP1 DUP4 PUSH20 0xFFFFFFFFFFFFFFFFFFFFFFFFFFFFFFFFFFFFFFFF AND MUL OR SWAP1 SSTORE POP PUSH2 0xBD0 DUP1 PUSH2 0x5B PUSH0 CODECOPY PUSH0 RETURN INVALID PUSH1 0x80 PUSH1 0x40 MSTORE CALLVALUE DUP1 ISZERO PUSH2 0xF JUMPI PUSH0 PUSH0 REVERT JUMPDEST POP PUSH1 0x4 CALLDATASIZE LT PUSH2 0x49 JUMPI PUSH0 CALLDATALOAD PUSH1 0xE0 SHR DUP1 PUSH3 0x16E526 EQ PUSH2 0x4D JUMPI DUP1 PUSH4 0x8DA5CB5B EQ PUSH2 0x7D JUMPI DUP1 PUSH4 0xBB721AAB EQ PUSH2 0x9B JUMPI DUP1 PUSH4 0xFD531E93 EQ PUSH2 0xB7 JUMPI JUMPDEST PUSH0 PUSH0 REVERT JUMPDEST PUSH2 0x67 PUSH1 0x4 DUP1 CALLDATASIZE SUB DUP2 ADD SWAP1 PUSH2 0x62 SWAP2 SWAP1 PUSH2 0x4E7 JUMP JUMPDEST PUSH2 0xE7 JUMP JUMPDEST PUSH1 0x40 MLOAD PUSH2 0x74 SWAP2 SWAP1 PUSH2 0x582 JUMP JUMPDEST PUSH1 0x40 MLOAD DUP1 SWAP2 SUB SWAP1 RETURN JUMPDEST PUSH2 0x85 PUSH2 0x182 JUMP JUMPDEST PUSH1 0x40 MLOAD PUSH2 0x92 SWAP2 SWAP1 PUSH2 0x5B1 JUMP JUMPDEST PUSH1 0x40 MLOAD DUP1 SWAP2 SUB SWAP1 RETURN JUMPDEST PUSH2 0xB5 PUSH1 0x4 DUP1 CALLDATASIZE SUB DUP2 ADD SWAP1 PUSH2 0xB0 SWAP2 SWAP1 PUSH2 0x62B JUMP JUMPDEST PUSH2 0x1A6 JUMP JUMPDEST STOP JUMPDEST PUSH2 0xD1 PUSH1 0x4 DUP1 CALLDATASIZE SUB DUP2 ADD SWAP1 PUSH2 0xCC SWAP2 SWAP1 PUSH2 0x4E7 JUMP JUMPDEST PUSH2 0x389 JUMP JUMPDEST PUSH1 0x40 MLOAD PUSH2 0xDE SWAP2 SWAP1 PUSH2 0x582 JUMP JUMPDEST PUSH1 0x40 MLOAD DUP1 SWAP2 SUB SWAP1 RETURN JUMPDEST PUSH1 0x1 PUSH1 0x20 MSTORE DUP1 PUSH0 MSTORE PUSH1 0x40 PUSH0 KECCAK256 PUSH0 SWAP2 POP SWAP1 POP DUP1 SLOAD PUSH2 0x103 SWAP1 PUSH2 0x6B5 JUMP JUMPDEST DUP1 PUSH1 0x1F ADD PUSH1 0x20 DUP1 SWAP2 DIV MUL PUSH1 0x20 ADD PUSH1 0x40 MLOAD SWAP1 DUP2 ADD PUSH1 0x40 MSTORE DUP1 SWAP3 SWAP2 SWAP1 DUP2 DUP2 MSTORE PUSH1 0x20 ADD DUP3 DUP1 SLOAD PUSH2 0x12F SWAP1 PUSH2 0x6B5 JUMP JUMPDEST DUP1 ISZERO PUSH2 0x17A JUMPI DUP1 PUSH1 0x1F LT PUSH2 0x151 JUMPI PUSH2 0x100 DUP1 DUP4 SLOAD DIV MUL DUP4 MSTORE SWAP2 PUSH1 0x20 ADD SWAP2 PUSH2 0x17A JUMP JUMPDEST DUP3 ADD SWAP2 SWAP1 PUSH0 MSTORE PUSH1 0x20 PUSH0 KECCAK256 SWAP1 JUMPDEST DUP2 SLOAD DUP2 MSTORE SWAP1 PUSH1 0x1 ADD SWAP1 PUSH1 0x20 ADD DUP1 DUP4 GT PUSH2 0x15D JUMPI DUP3 SWAP1 SUB PUSH1 0x1F AND DUP3 ADD SWAP2 JUMPDEST POP POP POP POP POP DUP2 JUMP JUMPDEST PUSH0 PUSH0 SWAP1 SLOAD SWAP1 PUSH2 0x100 EXP SWAP1 DIV PUSH20 0xFFFFFFFFFFFFFFFFFFFFFFFFFFFFFFFFFFFFFFFF AND DUP2 JUMP JUMPDEST PUSH0 PUSH0 SWAP1 SLOAD SWAP1 PUSH2 0x100 EXP SWAP1 DIV PUSH20 0xFFFFFFFFFFFFFFFFFFFFFFFFFFFFFFFFFFFFFFFF AND PUSH20 0xFFFFFFFFFFFFFFFFFFFFFFFFFFFFFFFFFFFFFFFF AND CALLER PUSH20 0xFFFFFFFFFFFFFFFFFFFFFFFFFFFFFFFFFFFFFFFF AND EQ PUSH2 0x234 JUMPI PUSH1 0x40 MLOAD PUSH32 0x8C379A000000000000000000000000000000000000000000000000000000000 DUP2 MSTORE PUSH1 0x4 ADD PUSH2 0x22B SWAP1 PUSH2 0x755 JUMP JUMPDEST PUSH1 0x40 MLOAD DUP1 SWAP2 SUB SWAP1 REVERT JUMPDEST PUSH0 PUSH20 0xFFFFFFFFFFFFFFFFFFFFFFFFFFFFFFFFFFFFFFFF AND DUP4 PUSH20 0xFFFFFFFFFFFFFFFFFFFFFFFFFFFFFFFFFFFFFFFF AND SUB PUSH2 0x2A2 JUMPI PUSH1 0x40 MLOAD PUSH32 0x8C379A000000000000000000000000000000000000000000000000000000000 DUP2 MSTORE PUSH1 0x4 ADD PUSH2 0x299 SWAP1 PUSH2 0x7BD JUMP JUMPDEST PUSH1 0x40 MLOAD DUP1 SWAP2 SUB SWAP1 REVERT JUMPDEST PUSH0 DUP3 DUP3 SWAP1 POP GT PUSH2 0x2E7 JUMPI PUSH1 0x40 MLOAD PUSH32 0x8C379A000000000000000000000000000000000000000000000000000000000 DUP2 MSTORE PUSH1 0x4 ADD PUSH2 0x2DE SWAP1 PUSH2 0x84B JUMP JUMPDEST PUSH1 0x40 MLOAD DUP1 SWAP2 SUB SWAP1 REVERT JUMPDEST DUP2 DUP2 PUSH1 0x1 PUSH0 DUP7 PUSH20 0xFFFFFFFFFFFFFFFFFFFFFFFFFFFFFFFFFFFFFFFF AND PUSH20 0xFFFFFFFFFFFFFFFFFFFFFFFFFFFFFFFFFFFFFFFF AND DUP2 MSTORE PUSH1 0x20 ADD SWAP1 DUP2 MSTORE PUSH1 0x20 ADD PUSH0 KECCAK256 SWAP2 DUP3 PUSH2 0x333 SWAP3 SWAP2 SWAP1 PUSH2 0xA49 JUMP JUMPDEST POP DUP3 PUSH20 0xFFFFFFFFFFFFFFFFFFFFFFFFFFFFFFFFFFFFFFFF AND PUSH32 0x4514A45E6F56567008E790FE2158E66D34E8B8254C060AD061D5702748791479 DUP4 DUP4 PUSH1 0x40 MLOAD PUSH2 0x37C SWAP3 SWAP2 SWAP1 PUSH2 0xB50 JUMP JUMPDEST PUSH1 0x40 MLOAD DUP1 SWAP2 SUB SWAP1 LOG2 POP POP POP JUMP JUMPDEST PUSH1 0x60 PUSH0 PUSH1 0x1 PUSH0 DUP5 PUSH20 0xFFFFFFFFFFFFFFFFFFFFFFFFFFFFFFFFFFFFFFFF AND PUSH20 0xFFFFFFFFFFFFFFFFFFFFFFFFFFFFFFFFFFFFFFFF AND DUP2 MSTORE PUSH1 0x20 ADD SWAP1 DUP2 MSTORE PUSH1 0x20 ADD PUSH0 KECCAK256 DUP1 SLOAD PUSH2 0x3D4 SWAP1 PUSH2 0x6B5 JUMP JUMPDEST DUP1 PUSH1 0x1F ADD PUSH1 0x20 DUP1 SWAP2 DIV MUL PUSH1 0x20 ADD PUSH1 0x40 MLOAD SWAP1 DUP2 ADD PUSH1 0x40 MSTORE DUP1 SWAP3 SWAP2 SWAP1 DUP2 DUP2 MSTORE PUSH1 0x20 ADD DUP3 DUP1 SLOAD PUSH2 0x400 SWAP1 PUSH2 0x6B5 JUMP JUMPDEST DUP1 ISZERO PUSH2 0x44B JUMPI DUP1 PUSH1 0x1F LT PUSH2 0x422 JUMPI PUSH2 0x100 DUP1 DUP4 SLOAD DIV MUL DUP4 MSTORE SWAP2 PUSH1 0x20 ADD SWAP2 PUSH2 0x44B JUMP JUMPDEST DUP3 ADD SWAP2 SWAP1 PUSH0 MSTORE PUSH1 0x20 PUSH0 KECCAK256 SWAP1 JUMPDEST DUP2 SLOAD DUP2 MSTORE SWAP1 PUSH1 0x1 ADD SWAP1 PUSH1 0x20 ADD DUP1 DUP4 GT PUSH2 0x42E JUMPI DUP3 SWAP1 SUB PUSH1 0x1F AND DUP3 ADD SWAP2 JUMPDEST POP POP POP POP POP SWAP1 POP PUSH0 DUP2 MLOAD SUB PUSH2 0x47B JUMPI PUSH1 0x40 MLOAD DUP1 PUSH1 0x60 ADD PUSH1 0x40 MSTORE DUP1 PUSH1 0x28 DUP2 MSTORE PUSH1 0x20 ADD PUSH2 0xB73 PUSH1 0x28 SWAP2 CODECOPY SWAP2 POP POP PUSH2 0x480 JUMP JUMPDEST DUP1 SWAP2 POP POP JUMPDEST SWAP2 SWAP1 POP JUMP JUMPDEST PUSH0 PUSH0 REVERT JUMPDEST PUSH0 PUSH0 REVERT JUMPDEST PUSH0 PUSH20 0xFFFFFFFFFFFFFFFFFFFFFFFFFFFFFFFFFFFFFFFF DUP3 AND SWAP1 POP SWAP2 SWAP1 POP JUMP JUMPDEST PUSH0 PUSH2 0x4B6 DUP3 PUSH2 0x48D JUMP JUMPDEST SWAP1 POP SWAP2 SWAP1 POP JUMP JUMPDEST PUSH2 0x4C6 DUP2 PUSH2 0x4AC JUMP JUMPDEST DUP2 EQ PUSH2 0x4D0 JUMPI PUSH0 PUSH0 REVERT JUMPDEST POP JUMP JUMPDEST PUSH0 DUP2 CALLDATALOAD SWAP1 POP PUSH2 0x4E1 DUP2 PUSH2 0x4BD JUMP JUMPDEST SWAP3 SWAP2 POP POP JUMP JUMPDEST PUSH0 PUSH1 0x20 DUP3 DUP5 SUB SLT ISZERO PUSH2 0x4FC JUMPI PUSH2 0x4FB PUSH2 0x485 JUMP JUMPDEST JUMPDEST PUSH0 PUSH2 0x509 DUP5 DUP3 DUP6 ADD PUSH2 0x4D3 JUMP JUMPDEST SWAP2 POP POP SWAP3 SWAP2 POP POP JUMP JUMPDEST PUSH0 DUP2 MLOAD SWAP1 POP SWAP2 SWAP1 POP JUMP JUMPDEST PUSH0 DUP3 DUP3 MSTORE PUSH1 0x20 DUP3 ADD SWAP1 POP SWAP3 SWAP2 POP POP JUMP JUMPDEST DUP3 DUP2 DUP4 MCOPY PUSH0 DUP4 DUP4 ADD MSTORE POP POP POP JUMP JUMPDEST PUSH0 PUSH1 0x1F NOT PUSH1 0x1F DUP4 ADD AND SWAP1 POP SWAP2 SWAP1 POP JUMP JUMPDEST PUSH0 PUSH2 0x554 DUP3 PUSH2 0x512 JUMP JUMPDEST PUSH2 0x55E DUP2 DUP6 PUSH2 0x51C JUMP JUMPDEST SWAP4 POP PUSH2 0x56E DUP2 DUP6 PUSH1 0x20 DUP7 ADD PUSH2 0x52C JUMP JUMPDEST PUSH2 0x577 DUP2 PUSH2 0x53A JUMP JUMPDEST DUP5 ADD SWAP2 POP POP SWAP3 SWAP2 POP POP JUMP JUMPDEST PUSH0 PUSH1 0x20 DUP3 ADD SWAP1 POP DUP2 DUP2 SUB PUSH0 DUP4 ADD MSTORE PUSH2 0x59A DUP2 DUP5 PUSH2 0x54A JUMP JUMPDEST SWAP1 POP SWAP3 SWAP2 POP POP JUMP JUMPDEST PUSH2 0x5AB DUP2 PUSH2 0x4AC JUMP JUMPDEST DUP3 MSTORE POP POP JUMP JUMPDEST PUSH0 PUSH1 0x20 DUP3 ADD SWAP1 POP PUSH2 0x5C4 PUSH0 DUP4 ADD DUP5 PUSH2 0x5A2 JUMP JUMPDEST SWAP3 SWAP2 POP POP JUMP JUMPDEST PUSH0 PUSH0 REVERT JUMPDEST PUSH0 PUSH0 REVERT JUMPDEST PUSH0 PUSH0 REVERT JUMPDEST PUSH0 PUSH0 DUP4 PUSH1 0x1F DUP5 ADD SLT PUSH2 0x5EB JUMPI PUSH2 0x5EA PUSH2 0x5CA JUMP JUMPDEST JUMPDEST DUP3 CALLDATALOAD SWAP1 POP PUSH8 0xFFFFFFFFFFFFFFFF DUP2 GT ISZERO PUSH2 0x608 JUMPI PUSH2 0x607 PUSH2 0x5CE JUMP JUMPDEST JUMPDEST PUSH1 0x20 DUP4 ADD SWAP2 POP DUP4 PUSH1 0x1 DUP3 MUL DUP4 ADD GT ISZERO PUSH2 0x624 JUMPI PUSH2 0x623 PUSH2 0x5D2 JUMP JUMPDEST JUMPDEST SWAP3 POP SWAP3 SWAP1 POP JUMP JUMPDEST PUSH0 PUSH0 PUSH0 PUSH1 0x40 DUP5 DUP7 SUB SLT ISZERO PUSH2 0x642 JUMPI PUSH2 0x641 PUSH2 0x485 JUMP JUMPDEST JUMPDEST PUSH0 PUSH2 0x64F DUP7 DUP3 DUP8 ADD PUSH2 0x4D3 JUMP JUMPDEST SWAP4 POP POP PUSH1 0x20 DUP5 ADD CALLDATALOAD PUSH8 0xFFFFFFFFFFFFFFFF DUP2 GT ISZERO PUSH2 0x670 JUMPI PUSH2 0x66F PUSH2 0x489 JUMP JUMPDEST JUMPDEST PUSH2 0x67C DUP7 DUP3 DUP8 ADD PUSH2 0x5D6 JUMP JUMPDEST SWAP3 POP SWAP3 POP POP SWAP3 POP SWAP3 POP SWAP3 JUMP JUMPDEST PUSH32 0x4E487B7100000000000000000000000000000000000000000000000000000000 PUSH0 MSTORE PUSH1 0x22 PUSH1 0x4 MSTORE PUSH1 0x24 PUSH0 REVERT JUMPDEST PUSH0 PUSH1 0x2 DUP3 DIV SWAP1 POP PUSH1 0x1 DUP3 AND DUP1 PUSH2 0x6CC JUMPI PUSH1 0x7F DUP3 AND SWAP2 POP JUMPDEST PUSH1 0x20 DUP3 LT DUP2 SUB PUSH2 0x6DF JUMPI PUSH2 0x6DE PUSH2 0x688 JUMP JUMPDEST JUMPDEST POP SWAP2 SWAP1 POP JUMP JUMPDEST PUSH32 0x53616D6F2061646D696E6973747261746F72206D6F7A6520697A767273697469 PUSH0 DUP3 ADD MSTORE PUSH32 0x206F767520616B63696A75210000000000000000000000000000000000000000 PUSH1 0x20 DUP3 ADD MSTORE POP JUMP JUMPDEST PUSH0 PUSH2 0x73F PUSH1 0x2C DUP4 PUSH2 0x51C JUMP JUMPDEST SWAP2 POP PUSH2 0x74A DUP3 PUSH2 0x6E5 JUMP JUMPDEST PUSH1 0x40 DUP3 ADD SWAP1 POP SWAP2 SWAP1 POP JUMP JUMPDEST PUSH0 PUSH1 0x20 DUP3 ADD SWAP1 POP DUP2 DUP2 SUB PUSH0 DUP4 ADD MSTORE PUSH2 0x76C DUP2 PUSH2 0x733 JUMP JUMPDEST SWAP1 POP SWAP2 SWAP1 POP JUMP JUMPDEST PUSH32 0x4E6576617A656361206164726573612073747564656E74612100000000000000 PUSH0 DUP3 ADD MSTORE POP JUMP JUMPDEST PUSH0 PUSH2 0x7A7 PUSH1 0x19 DUP4 PUSH2 0x51C JUMP JUMPDEST SWAP2 POP PUSH2 0x7B2 DUP3 PUSH2 0x773 JUMP JUMPDEST PUSH1 0x20 DUP3 ADD SWAP1 POP SWAP2 SWAP1 POP JUMP JUMPDEST PUSH0 PUSH1 0x20 DUP3 ADD SWAP1 POP DUP2 DUP2 SUB PUSH0 DUP4 ADD MSTORE PUSH2 0x7D4 DUP2 PUSH2 0x79B JUMP JUMPDEST SWAP1 POP SWAP2 SWAP1 POP JUMP JUMPDEST PUSH32 0x446574616C6A6920736572746966696B617461206E6520736D656A7520626974 PUSH0 DUP3 ADD MSTORE PUSH32 0x69207072617A6E69210000000000000000000000000000000000000000000000 PUSH1 0x20 DUP3 ADD MSTORE POP JUMP JUMPDEST PUSH0 PUSH2 0x835 PUSH1 0x29 DUP4 PUSH2 0x51C JUMP JUMPDEST SWAP2 POP PUSH2 0x840 DUP3 PUSH2 0x7DB JUMP JUMPDEST PUSH1 0x40 DUP3 ADD SWAP1 POP SWAP2 SWAP1 POP JUMP JUMPDEST PUSH0 PUSH1 0x20 DUP3 ADD SWAP1 POP DUP2 DUP2 SUB PUSH0 DUP4 ADD MSTORE PUSH2 0x862 DUP2 PUSH2 0x829 JUMP JUMPDEST SWAP1 POP SWAP2 SWAP1 POP JUMP JUMPDEST PUSH0 DUP3 SWAP1 POP SWAP3 SWAP2 POP POP JUMP JUMPDEST PUSH32 0x4E487B7100000000000000000000000000000000000000000000000000000000 PUSH0 MSTORE PUSH1 0x41 PUSH1 0x4 MSTORE PUSH1 0x24 PUSH0 REVERT JUMPDEST PUSH0 DUP2 SWAP1 POP DUP2 PUSH0 MSTORE PUSH1 0x20 PUSH0 KECCAK256 SWAP1 POP SWAP2 SWAP1 POP JUMP JUMPDEST PUSH0 PUSH1 0x20 PUSH1 0x1F DUP4 ADD DIV SWAP1 POP SWAP2 SWAP1 POP JUMP JUMPDEST PUSH0 DUP3 DUP3 SHL SWAP1 POP SWAP3 SWAP2 POP POP JUMP JUMPDEST PUSH0 PUSH1 0x8 DUP4 MUL PUSH2 0x8FC PUSH32 0xFFFFFFFFFFFFFFFFFFFFFFFFFFFFFFFFFFFFFFFFFFFFFFFFFFFFFFFFFFFFFFFF DUP3 PUSH2 0x8C1 JUMP JUMPDEST PUSH2 0x906 DUP7 DUP4 PUSH2 0x8C1 JUMP JUMPDEST SWAP6 POP DUP1 NOT DUP5 AND SWAP4 POP DUP1 DUP7 AND DUP5 OR SWAP3 POP POP POP SWAP4 SWAP3 POP POP POP JUMP JUMPDEST PUSH0 DUP2 SWAP1 POP SWAP2 SWAP1 POP JUMP JUMPDEST PUSH0 DUP2 SWAP1 POP SWAP2 SWAP1 POP JUMP JUMPDEST PUSH0 PUSH2 0x94A PUSH2 0x945 PUSH2 0x940 DUP5 PUSH2 0x91E JUMP JUMPDEST PUSH2 0x927 JUMP JUMPDEST PUSH2 0x91E JUMP JUMPDEST SWAP1 POP SWAP2 SWAP1 POP JUMP JUMPDEST PUSH0 DUP2 SWAP1 POP SWAP2 SWAP1 POP JUMP JUMPDEST PUSH2 0x963 DUP4 PUSH2 0x930 JUMP JUMPDEST PUSH2 0x977 PUSH2 0x96F DUP3 PUSH2 0x951 JUMP JUMPDEST DUP5 DUP5 SLOAD PUSH2 0x8CD JUMP JUMPDEST DUP3 SSTORE POP POP POP POP JUMP JUMPDEST PUSH0 PUSH0 SWAP1 POP SWAP1 JUMP JUMPDEST PUSH2 0x98E PUSH2 0x97F JUMP JUMPDEST PUSH2 0x999 DUP2 DUP5 DUP5 PUSH2 0x95A JUMP JUMPDEST POP POP POP JUMP JUMPDEST JUMPDEST DUP2 DUP2 LT ISZERO PUSH2 0x9BC JUMPI PUSH2 0x9B1 PUSH0 DUP3 PUSH2 0x986 JUMP JUMPDEST PUSH1 0x1 DUP2 ADD SWAP1 POP PUSH2 0x99F JUMP JUMPDEST POP POP JUMP JUMPDEST PUSH1 0x1F DUP3 GT ISZERO PUSH2 0xA01 JUMPI PUSH2 0x9D2 DUP2 PUSH2 0x8A0 JUMP JUMPDEST PUSH2 0x9DB DUP5 PUSH2 0x8B2 JUMP JUMPDEST DUP2 ADD PUSH1 0x20 DUP6 LT ISZERO PUSH2 0x9EA JUMPI DUP2 SWAP1 POP JUMPDEST PUSH2 0x9FE PUSH2 0x9F6 DUP6 PUSH2 0x8B2 JUMP JUMPDEST DUP4 ADD DUP3 PUSH2 0x99E JUMP JUMPDEST POP POP JUMPDEST POP POP POP JUMP JUMPDEST PUSH0 DUP3 DUP3 SHR SWAP1 POP SWAP3 SWAP2 POP POP JUMP JUMPDEST PUSH0 PUSH2 0xA21 PUSH0 NOT DUP5 PUSH1 0x8 MUL PUSH2 0xA06 JUMP JUMPDEST NOT DUP1 DUP4 AND SWAP2 POP POP SWAP3 SWAP2 POP POP JUMP JUMPDEST PUSH0 PUSH2 0xA39 DUP4 DUP4 PUSH2 0xA12 JUMP JUMPDEST SWAP2 POP DUP3 PUSH1 0x2 MUL DUP3 OR SWAP1 POP SWAP3 SWAP2 POP POP JUMP JUMPDEST PUSH2 0xA53 DUP4 DUP4 PUSH2 0x869 JUMP JUMPDEST PUSH8 0xFFFFFFFFFFFFFFFF DUP2 GT ISZERO PUSH2 0xA6C JUMPI PUSH2 0xA6B PUSH2 0x873 JUMP JUMPDEST JUMPDEST PUSH2 0xA76 DUP3 SLOAD PUSH2 0x6B5 JUMP JUMPDEST PUSH2 0xA81 DUP3 DUP3 DUP6 PUSH2 0x9C0 JUMP JUMPDEST PUSH0 PUSH1 0x1F DUP4 GT PUSH1 0x1 DUP2 EQ PUSH2 0xAAE JUMPI PUSH0 DUP5 ISZERO PUSH2 0xA9C JUMPI DUP3 DUP8 ADD CALLDATALOAD SWAP1 POP JUMPDEST PUSH2 0xAA6 DUP6 DUP3 PUSH2 0xA2E JUMP JUMPDEST DUP7 SSTORE POP PUSH2 0xB0D JUMP JUMPDEST PUSH1 0x1F NOT DUP5 AND PUSH2 0xABC DUP7 PUSH2 0x8A0 JUMP JUMPDEST PUSH0 JUMPDEST DUP3 DUP2 LT ISZERO PUSH2 0xAE3 JUMPI DUP5 DUP10 ADD CALLDATALOAD DUP3 SSTORE PUSH1 0x1 DUP3 ADD SWAP2 POP PUSH1 0x20 DUP6 ADD SWAP5 POP PUSH1 0x20 DUP2 ADD SWAP1 POP PUSH2 0xABE JUMP JUMPDEST DUP7 DUP4 LT ISZERO PUSH2 0xB00 JUMPI DUP5 DUP10 ADD CALLDATALOAD PUSH2 0xAFC PUSH1 0x1F DUP10 AND DUP3 PUSH2 0xA12 JUMP JUMPDEST DUP4 SSTORE POP JUMPDEST PUSH1 0x1 PUSH1 0x2 DUP9 MUL ADD DUP9 SSTORE POP POP POP JUMPDEST POP POP POP POP POP POP POP JUMP JUMPDEST DUP3 DUP2 DUP4 CALLDATACOPY PUSH0 DUP4 DUP4 ADD MSTORE POP POP POP JUMP JUMPDEST PUSH0 PUSH2 0xB2F DUP4 DUP6 PUSH2 0x51C JUMP JUMPDEST SWAP4 POP PUSH2 0xB3C DUP4 DUP6 DUP5 PUSH2 0xB16 JUMP JUMPDEST PUSH2 0xB45 DUP4 PUSH2 0x53A JUMP JUMPDEST DUP5 ADD SWAP1 POP SWAP4 SWAP3 POP POP POP JUMP JUMPDEST PUSH0 PUSH1 0x20 DUP3 ADD SWAP1 POP DUP2 DUP2 SUB PUSH0 DUP4 ADD MSTORE PUSH2 0xB69 DUP2 DUP5 DUP7 PUSH2 0xB24 JUMP JUMPDEST SWAP1 POP SWAP4 SWAP3 POP POP POP JUMP INVALID MSTORE8 PUSH6 0x72746966696B PUSH2 0x7420 PUSH15 0x696A652070726F6E61646A656E207A PUSH2 0x206F PUSH23 0x75206164726573752EA2646970667358221220BAD3AFE8 EXTCODESIZE 0x2A SSTORE 0xF BALANCE MCOPY DUP15 0x2C RJUMPI 0x52E6 SHR PUSH14 0xA6D89448F43262634418D20DC852 CALLDATACOPY PUSH5 0x736F6C6343 STOP ADDMOD 0x1F STOP CALLER "
				},
				"gasEstimates": {
					"creation": {
						"codeDepositCost": "604800",
						"executionCost": "24900",
						"totalCost": "629700"
					},
					"external": {
						"certificates(address)": "infinite",
						"getCertificate(address)": "infinite",
						"issueCertificate(address,string)": "infinite",
						"owner()": "2507"
					}
				},
				"methodIdentifiers": {
					"certificates(address)": "0016e526",
					"getCertificate(address)": "fd531e93",
					"issueCertificate(address,string)": "bb721aab",
					"owner()": "8da5cb5b"
				}
			},
			"storageLayout": {
				"storage": [
					{
						"astId": 3,
						"contract": "CertificateRegistry.sol:CertificateRegistry",
						"label": "owner",
						"offset": 0,
						"slot": "0",
						"type": "t_address"
					},
					{
						"astId": 7,
						"contract": "CertificateRegistry.sol:CertificateRegistry",
						"label": "certificates",
						"offset": 0,
						"slot": "1",
						"type": "t_mapping(t_address,t_string_storage)"
					}
				],
				"types": {
					"t_address": {
						"encoding": "inplace",
						"label": "address",
						"numberOfBytes": "20"
					},
					"t_mapping(t_address,t_string_storage)": {
						"encoding": "mapping",
						"key": "t_address",
						"label": "mapping(address => string)",
						"numberOfBytes": "32",
						"value": "t_string_storage"
					},
					"t_string_storage": {
						"encoding": "bytes",
						"label": "string",
						"numberOfBytes": "32"
					}
				}
			},
			"userdoc": {
				"kind": "user",
				"methods": {},
				"version": 1
			}
		}
	}
}